{"contracts/StakingRewards.sol":{"StakingRewards":{"abi":[{"inputs":[],"stateMutability":"nonpayable","type":"constructor"},{"anonymous":false,"inputs":[{"indexed":false,"internalType":"uint256","name":"level","type":"uint256"},{"indexed":false,"internalType":"uint256","name":"newAPY","type":"uint256"}],"name":"APYUpdated","type":"event"},{"anonymous":false,"inputs":[{"indexed":true,"internalType":"address","name":"user","type":"address"},{"indexed":false,"internalType":"uint256","name":"oldLevel","type":"uint256"},{"indexed":false,"internalType":"uint256","name":"newLevel","type":"uint256"}],"name":"LevelUp","type":"event"},{"anonymous":false,"inputs":[{"indexed":true,"internalType":"address","name":"previousOwner","type":"address"},{"indexed":true,"internalType":"address","name":"newOwner","type":"address"}],"name":"OwnershipTransferred","type":"event"},{"anonymous":false,"inputs":[{"indexed":true,"internalType":"address","name":"user","type":"address"},{"indexed":false,"internalType":"uint256","name":"questsCompleted","type":"uint256"},{"indexed":false,"internalType":"uint256","name":"newLevel","type":"uint256"}],"name":"QuestCompleted","type":"event"},{"anonymous":false,"inputs":[{"indexed":true,"internalType":"address","name":"user","type":"address"},{"indexed":false,"internalType":"uint256","name":"amount","type":"uint256"}],"name":"RewardsClaimed","type":"event"},{"anonymous":false,"inputs":[{"indexed":true,"internalType":"address","name":"user","type":"address"},{"indexed":false,"internalType":"uint256","name":"amount","type":"uint256"},{"indexed":false,"internalType":"uint256","name":"level","type":"uint256"}],"name":"Staked","type":"event"},{"anonymous":false,"inputs":[{"indexed":true,"internalType":"address","name":"user","type":"address"},{"indexed":false,"internalType":"uint256","name":"amount","type":"uint256"}],"name":"Unstaked","type":"event"},{"inputs":[],"name":"FAN_TOKEN_ADDRESS","outputs":[{"internalType":"address","name":"","type":"address"}],"stateMutability":"view","type":"function"},{"inputs":[],"name":"accRewardPerShare","outputs":[{"internalType":"uint256","name":"","type":"uint256"}],"stateMutability":"view","type":"function"},{"inputs":[{"internalType":"uint256","name":"amount","type":"uint256"}],"name":"addRewardTokens","outputs":[],"stateMutability":"nonpayable","type":"function"},{"inputs":[],"name":"claimRewards","outputs":[],"stateMutability":"nonpayable","type":"function"},{"inputs":[{"internalType":"address","name":"user","type":"address"},{"internalType":"uint256","name":"questCount","type":"uint256"}],"name":"completeMultipleQuests","outputs":[],"stateMutability":"nonpayable","type":"function"},{"inputs":[{"internalType":"address","name":"user","type":"address"}],"name":"completeQuest","outputs":[],"stateMutability":"nonpayable","type":"function"},{"inputs":[],"name":"fanToken","outputs":[{"internalType":"contract IERC20","name":"","type":"address"}],"stateMutability":"view","type":"function"},{"inputs":[{"internalType":"uint256","name":"level","type":"uint256"}],"name":"getLevelInfo","outputs":[{"internalType":"uint256","name":"minQuests","type":"uint256"},{"internalType":"uint256","name":"apy","type":"uint256"},{"internalType":"string","name":"name","type":"string"}],"stateMutability":"view","type":"function"},{"inputs":[],"name":"getTotalInfo","outputs":[{"internalType":"uint256","name":"_totalStaked","type":"uint256"},{"internalType":"uint256","name":"_totalRewardsDistributed","type":"uint256"},{"internalType":"uint256","name":"_rewardPerSecond","type":"uint256"},{"internalType":"uint256","name":"_contractBalance","type":"uint256"}],"stateMutability":"view","type":"function"},{"inputs":[{"internalType":"address","name":"user","type":"address"}],"name":"getUserAPY","outputs":[{"internalType":"uint256","name":"","type":"uint256"}],"stateMutability":"view","type":"function"},{"inputs":[{"internalType":"address","name":"user","type":"address"}],"name":"getUserStake","outputs":[{"internalType":"uint256","name":"stakedAmount","type":"uint256"},{"internalType":"uint256","name":"pendingRewards","type":"uint256"},{"internalType":"uint256","name":"userLevel","type":"uint256"},{"internalType":"uint256","name":"questsCompleted","type":"uint256"},{"internalType":"bool","name":"isStaking","type":"bool"},{"internalType":"string","name":"levelName","type":"string"}],"stateMutability":"view","type":"function"},{"inputs":[],"name":"lastUpdateTime","outputs":[{"internalType":"uint256","name":"","type":"uint256"}],"stateMutability":"view","type":"function"},{"inputs":[{"internalType":"uint256","name":"","type":"uint256"}],"name":"levels","outputs":[{"internalType":"uint256","name":"minQuests","type":"uint256"},{"internalType":"uint256","name":"apy","type":"uint256"},{"internalType":"string","name":"name","type":"string"}],"stateMutability":"view","type":"function"},{"inputs":[],"name":"owner","outputs":[{"internalType":"address","name":"","type":"address"}],"stateMutability":"view","type":"function"},{"inputs":[],"name":"renounceOwnership","outputs":[],"stateMutability":"nonpayable","type":"function"},{"inputs":[],"name":"rewardPerSecond","outputs":[{"internalType":"uint256","name":"","type":"uint256"}],"stateMutability":"view","type":"function"},{"inputs":[{"internalType":"uint256","name":"_rewardPerSecond","type":"uint256"}],"name":"setRewardPerSecond","outputs":[],"stateMutability":"nonpayable","type":"function"},{"inputs":[{"internalType":"uint256","name":"amount","type":"uint256"}],"name":"stake","outputs":[],"stateMutability":"nonpayable","type":"function"},{"inputs":[],"name":"totalLevels","outputs":[{"internalType":"uint256","name":"","type":"uint256"}],"stateMutability":"view","type":"function"},{"inputs":[],"name":"totalRewardsDistributed","outputs":[{"internalType":"uint256","name":"","type":"uint256"}],"stateMutability":"view","type":"function"},{"inputs":[],"name":"totalStaked","outputs":[{"internalType":"uint256","name":"","type":"uint256"}],"stateMutability":"view","type":"function"},{"inputs":[{"internalType":"address","name":"newOwner","type":"address"}],"name":"transferOwnership","outputs":[],"stateMutability":"nonpayable","type":"function"},{"inputs":[{"internalType":"uint256","name":"amount","type":"uint256"}],"name":"unstake","outputs":[],"stateMutability":"nonpayable","type":"function"},{"inputs":[{"internalType":"uint256","name":"level","type":"uint256"},{"internalType":"uint256","name":"newAPY","type":"uint256"}],"name":"updateLevelAPY","outputs":[],"stateMutability":"nonpayable","type":"function"},{"inputs":[{"internalType":"address","name":"","type":"address"}],"name":"userStakes","outputs":[{"internalType":"uint256","name":"stakedAmount","type":"uint256"},{"internalType":"uint256","name":"rewardDebt","type":"uint256"},{"internalType":"uint256","name":"lastUpdateTime","type":"uint256"},{"internalType":"uint256","name":"userLevel","type":"uint256"},{"internalType":"uint256","name":"questsCompleted","type":"uint256"},{"internalType":"bool","name":"isStaking","type":"bool"}],"stateMutability":"view","type":"function"},{"inputs":[{"internalType":"address","name":"to","type":"address"},{"internalType":"uint256","name":"amount","type":"uint256"}],"name":"withdrawTokens","outputs":[],"stateMutability":"nonpayable","type":"function"}],"evm":{"bytecode":{"linkReferences":{},"object":"60a06040523480156200001157600080fd5b506200001d336200004d565b60018055731f0a316ba43224d87d7024c312ff52e1c8a2ced9608052620000436200009d565b4260055562000a5f565b600080546001600160a01b038381166001600160a01b0319831681178455604051919092169283917f8be0079c531659141344cd1fd0a4f28419497f9722a3daafe3b4186f6b6457e09190a35050565b6040805160608101825260008082526101f46020808401918252845180860186526008808252672132b3b4b73732b960c11b828401529585019081529280529390935281517f5eff886ea0ce6ca488a3d6e336d6c0f75f46d19b42c06ce5ee98e42c96d256c790815592517f5eff886ea0ce6ca488a3d6e336d6c0f75f46d19b42c06ce5ee98e42c96d256c855519091907f5eff886ea0ce6ca488a3d6e336d6c0f75f46d19b42c06ce5ee98e42c96d256c9906200015c908262000993565b5050604080516060810182526005815261032060208083019182528351808501855260068152654e6f7669636560d01b8183015293830193845260016000526008905281517fad67d757c34507f157cacfa2e3153e9f260a2244f30428821be7be64587ac55f90815590517fad67d757c34507f157cacfa2e3153e9f260a2244f30428821be7be64587ac5605591519092507fad67d757c34507f157cacfa2e3153e9f260a2244f30428821be7be64587ac561906200021c908262000993565b505060408051606081018252600f81526104b0602080830191825283518085018552600781526620b6b0ba32bab960c91b8183015293830193845260026000526008905281517f6add646517a5b0f6793cd5891b7937d28a5b2981a5d88ebc7cd776088fea904190815590517f6add646517a5b0f6793cd5891b7937d28a5b2981a5d88ebc7cd776088fea90425591519092507f6add646517a5b0f6793cd5891b7937d28a5b2981a5d88ebc7cd776088fea904390620002dd908262000993565b505060408051606081018252601e8152610640602080830191825283518085018552600a815269115b9d1a1d5cda585cdd60b21b8183015293830193845260036000526008905281517f625b35f5e76f098dd7c3a05b10e2e5e78a4a01228d60c3b143426cdf36d2645590815590517f625b35f5e76f098dd7c3a05b10e2e5e78a4a01228d60c3b143426cdf36d264565591519092507f625b35f5e76f098dd7c3a05b10e2e5e78a4a01228d60c3b143426cdf36d2645790620003a1908262000993565b505060408051606081018252603281526107d06020808301918252835180850185526006815265115e1c195c9d60d21b8183015293830193845260046000526008905281517f9321edea6e3be4df59a344b401fab4f888b556fda1f954244cff9204bad624b890815590517f9321edea6e3be4df59a344b401fab4f888b556fda1f954244cff9204bad624b95591519092507f9321edea6e3be4df59a344b401fab4f888b556fda1f954244cff9204bad624ba9062000461908262000993565b505060408051606081018252604b81526109c4602080830191825283518085018552600681526526b0b9ba32b960d11b8183015293830193845260056000526008905281517f91238f30f286c9a1c6e901c4eda3b214c381c846e3dbe48df95c21488e8e1fdb90815590517f91238f30f286c9a1c6e901c4eda3b214c381c846e3dbe48df95c21488e8e1fdc5591519092507f91238f30f286c9a1c6e901c4eda3b214c381c846e3dbe48df95c21488e8e1fdd9062000521908262000993565b50506040805160608101825260648152610bb8602080830191825283518085018552600680825265131959d95b9960d21b828401529484019081526000949094526008905281517f13acf3fc7bed94759963f076d5d3443d88732026bffc8253bdf4a6e65f21ecc590815590517f13acf3fc7bed94759963f076d5d3443d88732026bffc8253bdf4a6e65f21ecc65591519092507f13acf3fc7bed94759963f076d5d3443d88732026bffc8253bdf4a6e65f21ecc790620005e3908262000993565b50506040805160608101825260968152610dac60208083019182528351808501855260088082526721b430b6b834b7b760c11b82840152948401908152600760005293905281517f24cd397636bedc6cf9b490d0edd57c769c19b367fb7d5c2344ae1ddc7d21c14490815590517f24cd397636bedc6cf9b490d0edd57c769c19b367fb7d5c2344ae1ddc7d21c1455591519092507f24cd397636bedc6cf9b490d0edd57c769c19b367fb7d5c2344ae1ddc7d21c14690620006a5908262000993565b50506040805160608101825260c88152610fa060208083019182528351808501855260048152634865726f60e01b8183015293830193845260086000819052905281517fe4c2e8be66af8dd2d277000f4f830a10546f8b14e45cd850b875c98ba0f0d2cd90815590517fe4c2e8be66af8dd2d277000f4f830a10546f8b14e45cd850b875c98ba0f0d2ce5591519092507fe4c2e8be66af8dd2d277000f4f830a10546f8b14e45cd850b875c98ba0f0d2cf9062000763908262000993565b50506040805160608101825261012c8152611194602080830191825283518085018552600381526211dbd960ea1b8183015293830193845260096000526008905281517f82c9e868e45873bb5a4f47c09e14a12f6a6314e13aabd611e4374762bb4e8b3690815590517f82c9e868e45873bb5a4f47c09e14a12f6a6314e13aabd611e4374762bb4e8b375591519092507f82c9e868e45873bb5a4f47c09e14a12f6a6314e13aabd611e4374762bb4e8b389062000821908262000993565b5050604080516060810182526101f48152611388602080830191825283518085018552600880825267125b5b5bdc9d185b60c21b82840152948401908152600a60005293905281517f586689db7536874b78a6eac0f58556a56a106985743f7c16a699b27bb02f88bd90815590517f586689db7536874b78a6eac0f58556a56a106985743f7c16a699b27bb02f88be5591519092507f586689db7536874b78a6eac0f58556a56a106985743f7c16a699b27bb02f88bf90620008e4908262000993565b5050600b60095550565b634e487b7160e01b600052604160045260246000fd5b600181811c908216806200091957607f821691505b6020821081036200093a57634e487b7160e01b600052602260045260246000fd5b50919050565b601f8211156200098e57600081815260208120601f850160051c81016020861015620009695750805b601f850160051c820191505b818110156200098a5782815560010162000975565b5050505b505050565b81516001600160401b03811115620009af57620009af620008ee565b620009c781620009c0845462000904565b8462000940565b602080601f831160018114620009ff5760008415620009e65750858301515b600019600386901b1c1916600185901b1785556200098a565b600085815260208120601f198616915b8281101562000a305788860151825594840194600190910190840162000a0f565b508582101562000a4f5787850151600019600388901b60f8161c191681555b5050505050600190811b01905550565b60805161188762000aac600039600081816102e201528181610578015281816106380152818161078d0152818161096901528181610a6601528181610d930152610efa01526118876000f3fe608060405234801561001057600080fd5b506004361061018e5760003560e01c806377b37fe7116100de578063a694fc3a11610097578063c8f33c9111610071578063c8f33c9114610403578063e8c094191461040c578063ee1725461461041f578063f2fde38b1461042857600080fd5b8063a694fc3a146103b8578063b2596a67146103cb578063bbadc93a146103de57600080fd5b806377b37fe714610304578063817b1cd2146103175780638da5cb5b146103205780638da7ad23146103315780638f10369a146103a6578063939d6237146103af57600080fd5b80633660106e1161014b578063609e276e11610125578063609e276e146102af57806366da5815146102c2578063715018a6146102d557806375daa3de146102dd57600080fd5b80633660106e14610258578063372500ab1461029457806358eb97001461029c57600080fd5b8063030101db1461019357806303b93940146101be57806306b091f9146101f15780631f57803114610206578063285109d11461021d5780632e17de7814610245575b600080fd5b6101a66101a13660046115c9565b61043b565b6040516101b593929190611628565b60405180910390f35b6101d9731f0a316ba43224d87d7024c312ff52e1c8a2ced981565b6040516001600160a01b0390911681526020016101b5565b6102046101ff36600461166c565b61054a565b005b61020f60095481565b6040519081526020016101b5565b610225610605565b6040805194855260208501939093529183015260608201526080016101b5565b6102046102533660046115c9565b6106b1565b61020f610266366004611696565b6001600160a01b03166000908152600760209081526040808320600301548352600890915290206001015490565b610204610860565b6102046102aa3660046115c9565b610a3c565b6102046102bd36600461166c565b610af7565b6102046102d03660046115c9565b610bef565b610204610c04565b6101d97f000000000000000000000000000000000000000000000000000000000000000081565b610204610312366004611696565b610c16565b61020f60025481565b6000546001600160a01b03166101d9565b61037761033f366004611696565b600760205260009081526040902080546001820154600283015460038401546004850154600590950154939492939192909160ff1686565b6040805196875260208701959095529385019290925260608401526080830152151560a082015260c0016101b5565b61020f60045481565b61020f60065481565b6102046103c63660046115c9565b610d0e565b6101a66103d93660046115c9565b610fd1565b6103f16103ec366004611696565b61107c565b6040516101b5969594939291906116b1565b61020f60055481565b61020461041a3660046116f0565b611226565b61020f60035481565b610204610436366004611696565b6112d1565b600080606060095484106104965760405162461bcd60e51b815260206004820152601d60248201527f5374616b696e67526577617264733a20696e76616c6964206c6576656c00000060448201526064015b60405180910390fd5b60008481526008602052604090208054600182015460028301805481906104bc90611712565b80601f01602080910402602001604051908101604052809291908181526020018280546104e890611712565b80156105355780601f1061050a57610100808354040283529160200191610535565b820191906000526020600020905b81548152906001019060200180831161051857829003601f168201915b50505050509050935093509350509193909250565b610552611347565b60405163a9059cbb60e01b81526001600160a01b038381166004830152602482018390527f0000000000000000000000000000000000000000000000000000000000000000169063a9059cbb906044016020604051808303816000875af11580156105c1573d6000803e3d6000fd5b505050506040513d601f19601f820116820180604052508101906105e5919061174c565b6106015760405162461bcd60e51b815260040161048d90611775565b5050565b600254600354600480546040516370a0823160e01b81523092810192909252600093849384938493906001600160a01b037f000000000000000000000000000000000000000000000000000000000000000016906370a0823190602401602060405180830381865afa15801561067f573d6000803e3d6000fd5b505050506040513d601f19601f820116820180604052508101906106a391906117ac565b935093509350935090919293565b6106b96113a1565b336000908152600760205260409020805482111561072c5760405162461bcd60e51b815260206004820152602a60248201527f5374616b696e67526577617264733a20696e73756666696369656e74207374616044820152691ad95908185b5bdd5b9d60b21b606482015260840161048d565b6107346113fa565b61073d33611478565b805461074990836114fe565b815560025461075890836114fe565b60025580546000036107715760058101805460ff191690555b60405163a9059cbb60e01b8152336004820152602481018390527f00000000000000000000000000000000000000000000000000000000000000006001600160a01b03169063a9059cbb906044016020604051808303816000875af11580156107de573d6000803e3d6000fd5b505050506040513d601f19601f82011682018060405250810190610802919061174c565b61081e5760405162461bcd60e51b815260040161048d90611775565b60405182815233907f0f5bb82176feb1b5e747e28471aa92156a04d9f3ab9f45f28e2d704232b93f759060200160405180910390a25061085d60018055565b50565b6108686113a1565b6108706113fa565b61087933611478565b336000908152600760205260408120600181015460065482549293926108be92916108b891670de0b6b3a7640000916108b29190611513565b9061151f565b906114fe565b90506000811161091c5760405162461bcd60e51b815260206004820152602360248201527f5374616b696e67526577617264733a206e6f207265776172647320746f20636c60448201526261696d60e81b606482015260840161048d565b600654825461093891670de0b6b3a7640000916108b291611513565b600183015560035461094a908261152b565b60035560405163a9059cbb60e01b8152336004820152602481018290527f00000000000000000000000000000000000000000000000000000000000000006001600160a01b03169063a9059cbb906044016020604051808303816000875af11580156109ba573d6000803e3d6000fd5b505050506040513d601f19601f820116820180604052508101906109de919061174c565b6109fa5760405162461bcd60e51b815260040161048d90611775565b60405181815233907ffc30cddea38e2bf4d6ea7d3f9ed3b6ad7f176419f4963bd81318067a4aee73fe9060200160405180910390a25050610a3a60018055565b565b610a44611347565b6040516323b872dd60e01b8152336004820152306024820152604481018290527f00000000000000000000000000000000000000000000000000000000000000006001600160a01b0316906323b872dd906064016020604051808303816000875af1158015610ab7573d6000803e3d6000fd5b505050506040513d601f19601f82011682018060405250810190610adb919061174c565b61085d5760405162461bcd60e51b815260040161048d90611775565b610aff611347565b6001600160a01b038216600090815260076020526040902060038101546004820154610b2b908461152b565b60048301819055610b3b90611537565b6003830181905560048301546040805191825260208201929092526001600160a01b038616917fe0b5124b12e878158288d1002ed1fb960faff0ec1c7b3168f86d9d1afd1b0d8b910160405180910390a28082600301541115610be957836001600160a01b03167feec61667dd6eeecdccfef3c906e0fd047cca672804901ac4254d8545e9a426d4828460030154604051610be0929190918252602082015260400190565b60405180910390a25b50505050565b610bf7611347565b610bff6113fa565b600455565b610c0c611347565b610a3a6000611579565b610c1e611347565b6001600160a01b038116600090815260076020526040902060038101546004820154610c4b90600161152b565b60048301819055610c5b90611537565b6003830181905560048301546040805191825260208201929092526001600160a01b038516917fe0b5124b12e878158288d1002ed1fb960faff0ec1c7b3168f86d9d1afd1b0d8b910160405180910390a28082600301541115610d0957826001600160a01b03167feec61667dd6eeecdccfef3c906e0fd047cca672804901ac4254d8545e9a426d4828460030154604051610d00929190918252602082015260400190565b60405180910390a25b505050565b610d166113a1565b60008111610d7c5760405162461bcd60e51b815260206004820152602d60248201527f5374616b696e67526577617264733a20616d6f756e74206d757374206265206760448201526c0726561746572207468616e203609c1b606482015260840161048d565b6040516370a0823160e01b815233600482015281907f00000000000000000000000000000000000000000000000000000000000000006001600160a01b0316906370a0823190602401602060405180830381865afa158015610de2573d6000803e3d6000fd5b505050506040513d601f19601f82011682018060405250810190610e0691906117ac565b1015610e605760405162461bcd60e51b8152602060048201526024808201527f5374616b696e67526577617264733a20696e73756666696369656e742062616c604482015263616e636560e01b606482015260840161048d565b610e686113fa565b610e7133611478565b3360009081526007602052604081206004810154909190610e9190611537565b825490915015610eae578154610ea7908461152b565b8255610ec8565b8282556003820181905560058201805460ff191660011790555b600254610ed5908461152b565b6002556040516323b872dd60e01b8152336004820152306024820152604481018490527f00000000000000000000000000000000000000000000000000000000000000006001600160a01b0316906323b872dd906064016020604051808303816000875af1158015610f4b573d6000803e3d6000fd5b505050506040513d601f19601f82011682018060405250810190610f6f919061174c565b610f8b5760405162461bcd60e51b815260040161048d90611775565b604080518481526020810183905233917f1449c6dd7851abc30abf37f57715f492010519147cc2652fbc38202c18a6ee90910160405180910390a2505061085d60018055565b60086020526000908152604090208054600182015460028301805492939192610ff990611712565b80601f016020809104026020016040519081016040528092919081815260200182805461102590611712565b80156110725780601f1061104757610100808354040283529160200191611072565b820191906000526020600020905b81548152906001019060200180831161105557829003601f168201915b5050505050905083565b6001600160a01b038116600090815260076020526040812060065460055483928392839283926060929091421180156110b757506000600254115b1561111e5760006110d3600554426114fe90919063ffffffff16565b905060006110ec6004548361151390919063ffffffff16565b90506111196111126002546108b2670de0b6b3a76400008561151390919063ffffffff16565b849061152b565b925050505b8154600090156111565761115383600101546108b8670de0b6b3a76400006108b286886000015461151390919063ffffffff16565b90505b8254600384015460048501546005860154600083815260086020526040902060020180548694939260ff169190819061118e90611712565b80601f01602080910402602001604051908101604052809291908181526020018280546111ba90611712565b80156112075780601f106111dc57610100808354040283529160200191611207565b820191906000526020600020905b8154815290600101906020018083116111ea57829003601f168201915b5050505050905098509850985098509850985050505091939550919395565b61122e611347565b600954821061127f5760405162461bcd60e51b815260206004820152601d60248201527f5374616b696e67526577617264733a20696e76616c6964206c6576656c000000604482015260640161048d565b60008281526008602090815260409182902060010183905581518481529081018390527f787a1fca55641ce34a438271930bbb9401df20db2b4f510d4f252227d85df43d910160405180910390a15050565b6112d9611347565b6001600160a01b03811661133e5760405162461bcd60e51b815260206004820152602660248201527f4f776e61626c653a206e6577206f776e657220697320746865207a65726f206160448201526564647265737360d01b606482015260840161048d565b61085d81611579565b6000546001600160a01b03163314610a3a5760405162461bcd60e51b815260206004820181905260248201527f4f776e61626c653a2063616c6c6572206973206e6f7420746865206f776e6572604482015260640161048d565b6002600154036113f35760405162461bcd60e51b815260206004820152601f60248201527f5265656e7472616e637947756172643a207265656e7472616e742063616c6c00604482015260640161048d565b6002600155565b600554421161140557565b60025415611472576000611424600554426114fe90919063ffffffff16565b9050600061143d6004548361151390919063ffffffff16565b905061146c6114636002546108b2670de0b6b3a76400008561151390919063ffffffff16565b6006549061152b565b60065550505b42600555565b6001600160a01b03811660009081526007602052604090208054156114f45760006114c682600101546108b8670de0b6b3a76400006108b2600654876000015461151390919063ffffffff16565b90506114ed670de0b6b3a76400006108b2600654856000015461151390919063ffffffff16565b6001830155505b4260029091015550565b600061150a82846117db565b90505b92915050565b600061150a82846117ee565b600061150a8284611805565b600061150a8284611827565b600080600160095461154991906117db565b90505b60008181526008602052604090205483106115675792915050565b806115718161183a565b91505061154c565b600080546001600160a01b038381166001600160a01b0319831681178455604051919092169283917f8be0079c531659141344cd1fd0a4f28419497f9722a3daafe3b4186f6b6457e09190a35050565b6000602082840312156115db57600080fd5b5035919050565b6000815180845260005b81811015611608576020818501810151868301820152016115ec565b506000602082860101526020601f19601f83011685010191505092915050565b83815282602082015260606040820152600061164760608301846115e2565b95945050505050565b80356001600160a01b038116811461166757600080fd5b919050565b6000806040838503121561167f57600080fd5b61168883611650565b946020939093013593505050565b6000602082840312156116a857600080fd5b61150a82611650565b868152856020820152846040820152836060820152821515608082015260c060a082015260006116e460c08301846115e2565b98975050505050505050565b6000806040838503121561170357600080fd5b50508035926020909101359150565b600181811c9082168061172657607f821691505b60208210810361174657634e487b7160e01b600052602260045260246000fd5b50919050565b60006020828403121561175e57600080fd5b8151801515811461176e57600080fd5b9392505050565b6020808252601f908201527f5374616b696e67526577617264733a207472616e73666572206661696c656400604082015260600190565b6000602082840312156117be57600080fd5b5051919050565b634e487b7160e01b600052601160045260246000fd5b8181038181111561150d5761150d6117c5565b808202811582820484141761150d5761150d6117c5565b60008261182257634e487b7160e01b600052601260045260246000fd5b500490565b8082018082111561150d5761150d6117c5565b600081611849576118496117c5565b50600019019056fea2646970667358221220349050e5fbe3c265e7472366bbefbd82194c822ec3d8d0c8651fa32df60b5ed364736f6c63430008130033","opcodes":"PUSH1 0xA0 PUSH1 0x40 MSTORE CALLVALUE DUP1 ISZERO PUSH3 0x11 JUMPI PUSH1 0x0 DUP1 REVERT JUMPDEST POP PUSH3 0x1D CALLER PUSH3 0x4D JUMP JUMPDEST PUSH1 0x1 DUP1 SSTORE PUSH20 0x1F0A316BA43224D87D7024C312FF52E1C8A2CED9 PUSH1 0x80 MSTORE PUSH3 0x43 PUSH3 0x9D JUMP JUMPDEST TIMESTAMP PUSH1 0x5 SSTORE PUSH3 0xA5F JUMP JUMPDEST PUSH1 0x0 DUP1 SLOAD PUSH1 0x1 PUSH1 0x1 PUSH1 0xA0 SHL SUB DUP4 DUP2 AND PUSH1 0x1 PUSH1 0x1 PUSH1 0xA0 SHL SUB NOT DUP4 AND DUP2 OR DUP5 SSTORE PUSH1 0x40 MLOAD SWAP2 SWAP1 SWAP3 AND SWAP3 DUP4 SWAP2 PUSH32 0x8BE0079C531659141344CD1FD0A4F28419497F9722A3DAAFE3B4186F6B6457E0 SWAP2 SWAP1 LOG3 POP POP JUMP JUMPDEST PUSH1 0x40 DUP1 MLOAD PUSH1 0x60 DUP2 ADD DUP3 MSTORE PUSH1 0x0 DUP1 DUP3 MSTORE PUSH2 0x1F4 PUSH1 0x20 DUP1 DUP5 ADD SWAP2 DUP3 MSTORE DUP5 MLOAD DUP1 DUP7 ADD DUP7 MSTORE PUSH1 0x8 DUP1 DUP3 MSTORE PUSH8 0x2132B3B4B73732B9 PUSH1 0xC1 SHL DUP3 DUP5 ADD MSTORE SWAP6 DUP6 ADD SWAP1 DUP2 MSTORE SWAP3 DUP1 MSTORE SWAP4 SWAP1 SWAP4 MSTORE DUP2 MLOAD PUSH32 0x5EFF886EA0CE6CA488A3D6E336D6C0F75F46D19B42C06CE5EE98E42C96D256C7 SWAP1 DUP2 SSTORE SWAP3 MLOAD PUSH32 0x5EFF886EA0CE6CA488A3D6E336D6C0F75F46D19B42C06CE5EE98E42C96D256C8 SSTORE MLOAD SWAP1 SWAP2 SWAP1 PUSH32 0x5EFF886EA0CE6CA488A3D6E336D6C0F75F46D19B42C06CE5EE98E42C96D256C9 SWAP1 PUSH3 0x15C SWAP1 DUP3 PUSH3 0x993 JUMP JUMPDEST POP POP PUSH1 0x40 DUP1 MLOAD PUSH1 0x60 DUP2 ADD DUP3 MSTORE PUSH1 0x5 DUP2 MSTORE PUSH2 0x320 PUSH1 0x20 DUP1 DUP4 ADD SWAP2 DUP3 MSTORE DUP4 MLOAD DUP1 DUP6 ADD DUP6 MSTORE PUSH1 0x6 DUP2 MSTORE PUSH6 0x4E6F76696365 PUSH1 0xD0 SHL DUP2 DUP4 ADD MSTORE SWAP4 DUP4 ADD SWAP4 DUP5 MSTORE PUSH1 0x1 PUSH1 0x0 MSTORE PUSH1 0x8 SWAP1 MSTORE DUP2 MLOAD PUSH32 0xAD67D757C34507F157CACFA2E3153E9F260A2244F30428821BE7BE64587AC55F SWAP1 DUP2 SSTORE SWAP1 MLOAD PUSH32 0xAD67D757C34507F157CACFA2E3153E9F260A2244F30428821BE7BE64587AC560 SSTORE SWAP2 MLOAD SWAP1 SWAP3 POP PUSH32 0xAD67D757C34507F157CACFA2E3153E9F260A2244F30428821BE7BE64587AC561 SWAP1 PUSH3 0x21C SWAP1 DUP3 PUSH3 0x993 JUMP JUMPDEST POP POP PUSH1 0x40 DUP1 MLOAD PUSH1 0x60 DUP2 ADD DUP3 MSTORE PUSH1 0xF DUP2 MSTORE PUSH2 0x4B0 PUSH1 0x20 DUP1 DUP4 ADD SWAP2 DUP3 MSTORE DUP4 MLOAD DUP1 DUP6 ADD DUP6 MSTORE PUSH1 0x7 DUP2 MSTORE PUSH7 0x20B6B0BA32BAB9 PUSH1 0xC9 SHL DUP2 DUP4 ADD MSTORE SWAP4 DUP4 ADD SWAP4 DUP5 MSTORE PUSH1 0x2 PUSH1 0x0 MSTORE PUSH1 0x8 SWAP1 MSTORE DUP2 MLOAD PUSH32 0x6ADD646517A5B0F6793CD5891B7937D28A5B2981A5D88EBC7CD776088FEA9041 SWAP1 DUP2 SSTORE SWAP1 MLOAD PUSH32 0x6ADD646517A5B0F6793CD5891B7937D28A5B2981A5D88EBC7CD776088FEA9042 SSTORE SWAP2 MLOAD SWAP1 SWAP3 POP PUSH32 0x6ADD646517A5B0F6793CD5891B7937D28A5B2981A5D88EBC7CD776088FEA9043 SWAP1 PUSH3 0x2DD SWAP1 DUP3 PUSH3 0x993 JUMP JUMPDEST POP POP PUSH1 0x40 DUP1 MLOAD PUSH1 0x60 DUP2 ADD DUP3 MSTORE PUSH1 0x1E DUP2 MSTORE PUSH2 0x640 PUSH1 0x20 DUP1 DUP4 ADD SWAP2 DUP3 MSTORE DUP4 MLOAD DUP1 DUP6 ADD DUP6 MSTORE PUSH1 0xA DUP2 MSTORE PUSH10 0x115B9D1A1D5CDA585CDD PUSH1 0xB2 SHL DUP2 DUP4 ADD MSTORE SWAP4 DUP4 ADD SWAP4 DUP5 MSTORE PUSH1 0x3 PUSH1 0x0 MSTORE PUSH1 0x8 SWAP1 MSTORE DUP2 MLOAD PUSH32 0x625B35F5E76F098DD7C3A05B10E2E5E78A4A01228D60C3B143426CDF36D26455 SWAP1 DUP2 SSTORE SWAP1 MLOAD PUSH32 0x625B35F5E76F098DD7C3A05B10E2E5E78A4A01228D60C3B143426CDF36D26456 SSTORE SWAP2 MLOAD SWAP1 SWAP3 POP PUSH32 0x625B35F5E76F098DD7C3A05B10E2E5E78A4A01228D60C3B143426CDF36D26457 SWAP1 PUSH3 0x3A1 SWAP1 DUP3 PUSH3 0x993 JUMP JUMPDEST POP POP PUSH1 0x40 DUP1 MLOAD PUSH1 0x60 DUP2 ADD DUP3 MSTORE PUSH1 0x32 DUP2 MSTORE PUSH2 0x7D0 PUSH1 0x20 DUP1 DUP4 ADD SWAP2 DUP3 MSTORE DUP4 MLOAD DUP1 DUP6 ADD DUP6 MSTORE PUSH1 0x6 DUP2 MSTORE PUSH6 0x115E1C195C9D PUSH1 0xD2 SHL DUP2 DUP4 ADD MSTORE SWAP4 DUP4 ADD SWAP4 DUP5 MSTORE PUSH1 0x4 PUSH1 0x0 MSTORE PUSH1 0x8 SWAP1 MSTORE DUP2 MLOAD PUSH32 0x9321EDEA6E3BE4DF59A344B401FAB4F888B556FDA1F954244CFF9204BAD624B8 SWAP1 DUP2 SSTORE SWAP1 MLOAD PUSH32 0x9321EDEA6E3BE4DF59A344B401FAB4F888B556FDA1F954244CFF9204BAD624B9 SSTORE SWAP2 MLOAD SWAP1 SWAP3 POP PUSH32 0x9321EDEA6E3BE4DF59A344B401FAB4F888B556FDA1F954244CFF9204BAD624BA SWAP1 PUSH3 0x461 SWAP1 DUP3 PUSH3 0x993 JUMP JUMPDEST POP POP PUSH1 0x40 DUP1 MLOAD PUSH1 0x60 DUP2 ADD DUP3 MSTORE PUSH1 0x4B DUP2 MSTORE PUSH2 0x9C4 PUSH1 0x20 DUP1 DUP4 ADD SWAP2 DUP3 MSTORE DUP4 MLOAD DUP1 DUP6 ADD DUP6 MSTORE PUSH1 0x6 DUP2 MSTORE PUSH6 0x26B0B9BA32B9 PUSH1 0xD1 SHL DUP2 DUP4 ADD MSTORE SWAP4 DUP4 ADD SWAP4 DUP5 MSTORE PUSH1 0x5 PUSH1 0x0 MSTORE PUSH1 0x8 SWAP1 MSTORE DUP2 MLOAD PUSH32 0x91238F30F286C9A1C6E901C4EDA3B214C381C846E3DBE48DF95C21488E8E1FDB SWAP1 DUP2 SSTORE SWAP1 MLOAD PUSH32 0x91238F30F286C9A1C6E901C4EDA3B214C381C846E3DBE48DF95C21488E8E1FDC SSTORE SWAP2 MLOAD SWAP1 SWAP3 POP PUSH32 0x91238F30F286C9A1C6E901C4EDA3B214C381C846E3DBE48DF95C21488E8E1FDD SWAP1 PUSH3 0x521 SWAP1 DUP3 PUSH3 0x993 JUMP JUMPDEST POP POP PUSH1 0x40 DUP1 MLOAD PUSH1 0x60 DUP2 ADD DUP3 MSTORE PUSH1 0x64 DUP2 MSTORE PUSH2 0xBB8 PUSH1 0x20 DUP1 DUP4 ADD SWAP2 DUP3 MSTORE DUP4 MLOAD DUP1 DUP6 ADD DUP6 MSTORE PUSH1 0x6 DUP1 DUP3 MSTORE PUSH6 0x131959D95B99 PUSH1 0xD2 SHL DUP3 DUP5 ADD MSTORE SWAP5 DUP5 ADD SWAP1 DUP2 MSTORE PUSH1 0x0 SWAP5 SWAP1 SWAP5 MSTORE PUSH1 0x8 SWAP1 MSTORE DUP2 MLOAD PUSH32 0x13ACF3FC7BED94759963F076D5D3443D88732026BFFC8253BDF4A6E65F21ECC5 SWAP1 DUP2 SSTORE SWAP1 MLOAD PUSH32 0x13ACF3FC7BED94759963F076D5D3443D88732026BFFC8253BDF4A6E65F21ECC6 SSTORE SWAP2 MLOAD SWAP1 SWAP3 POP PUSH32 0x13ACF3FC7BED94759963F076D5D3443D88732026BFFC8253BDF4A6E65F21ECC7 SWAP1 PUSH3 0x5E3 SWAP1 DUP3 PUSH3 0x993 JUMP JUMPDEST POP POP PUSH1 0x40 DUP1 MLOAD PUSH1 0x60 DUP2 ADD DUP3 MSTORE PUSH1 0x96 DUP2 MSTORE PUSH2 0xDAC PUSH1 0x20 DUP1 DUP4 ADD SWAP2 DUP3 MSTORE DUP4 MLOAD DUP1 DUP6 ADD DUP6 MSTORE PUSH1 0x8 DUP1 DUP3 MSTORE PUSH8 0x21B430B6B834B7B7 PUSH1 0xC1 SHL DUP3 DUP5 ADD MSTORE SWAP5 DUP5 ADD SWAP1 DUP2 MSTORE PUSH1 0x7 PUSH1 0x0 MSTORE SWAP4 SWAP1 MSTORE DUP2 MLOAD PUSH32 0x24CD397636BEDC6CF9B490D0EDD57C769C19B367FB7D5C2344AE1DDC7D21C144 SWAP1 DUP2 SSTORE SWAP1 MLOAD PUSH32 0x24CD397636BEDC6CF9B490D0EDD57C769C19B367FB7D5C2344AE1DDC7D21C145 SSTORE SWAP2 MLOAD SWAP1 SWAP3 POP PUSH32 0x24CD397636BEDC6CF9B490D0EDD57C769C19B367FB7D5C2344AE1DDC7D21C146 SWAP1 PUSH3 0x6A5 SWAP1 DUP3 PUSH3 0x993 JUMP JUMPDEST POP POP PUSH1 0x40 DUP1 MLOAD PUSH1 0x60 DUP2 ADD DUP3 MSTORE PUSH1 0xC8 DUP2 MSTORE PUSH2 0xFA0 PUSH1 0x20 DUP1 DUP4 ADD SWAP2 DUP3 MSTORE DUP4 MLOAD DUP1 DUP6 ADD DUP6 MSTORE PUSH1 0x4 DUP2 MSTORE PUSH4 0x4865726F PUSH1 0xE0 SHL DUP2 DUP4 ADD MSTORE SWAP4 DUP4 ADD SWAP4 DUP5 MSTORE PUSH1 0x8 PUSH1 0x0 DUP2 SWAP1 MSTORE SWAP1 MSTORE DUP2 MLOAD PUSH32 0xE4C2E8BE66AF8DD2D277000F4F830A10546F8B14E45CD850B875C98BA0F0D2CD SWAP1 DUP2 SSTORE SWAP1 MLOAD PUSH32 0xE4C2E8BE66AF8DD2D277000F4F830A10546F8B14E45CD850B875C98BA0F0D2CE SSTORE SWAP2 MLOAD SWAP1 SWAP3 POP PUSH32 0xE4C2E8BE66AF8DD2D277000F4F830A10546F8B14E45CD850B875C98BA0F0D2CF SWAP1 PUSH3 0x763 SWAP1 DUP3 PUSH3 0x993 JUMP JUMPDEST POP POP PUSH1 0x40 DUP1 MLOAD PUSH1 0x60 DUP2 ADD DUP3 MSTORE PUSH2 0x12C DUP2 MSTORE PUSH2 0x1194 PUSH1 0x20 DUP1 DUP4 ADD SWAP2 DUP3 MSTORE DUP4 MLOAD DUP1 DUP6 ADD DUP6 MSTORE PUSH1 0x3 DUP2 MSTORE PUSH3 0x11DBD9 PUSH1 0xEA SHL DUP2 DUP4 ADD MSTORE SWAP4 DUP4 ADD SWAP4 DUP5 MSTORE PUSH1 0x9 PUSH1 0x0 MSTORE PUSH1 0x8 SWAP1 MSTORE DUP2 MLOAD PUSH32 0x82C9E868E45873BB5A4F47C09E14A12F6A6314E13AABD611E4374762BB4E8B36 SWAP1 DUP2 SSTORE SWAP1 MLOAD PUSH32 0x82C9E868E45873BB5A4F47C09E14A12F6A6314E13AABD611E4374762BB4E8B37 SSTORE SWAP2 MLOAD SWAP1 SWAP3 POP PUSH32 0x82C9E868E45873BB5A4F47C09E14A12F6A6314E13AABD611E4374762BB4E8B38 SWAP1 PUSH3 0x821 SWAP1 DUP3 PUSH3 0x993 JUMP JUMPDEST POP POP PUSH1 0x40 DUP1 MLOAD PUSH1 0x60 DUP2 ADD DUP3 MSTORE PUSH2 0x1F4 DUP2 MSTORE PUSH2 0x1388 PUSH1 0x20 DUP1 DUP4 ADD SWAP2 DUP3 MSTORE DUP4 MLOAD DUP1 DUP6 ADD DUP6 MSTORE PUSH1 0x8 DUP1 DUP3 MSTORE PUSH8 0x125B5B5BDC9D185B PUSH1 0xC2 SHL DUP3 DUP5 ADD MSTORE SWAP5 DUP5 ADD SWAP1 DUP2 MSTORE PUSH1 0xA PUSH1 0x0 MSTORE SWAP4 SWAP1 MSTORE DUP2 MLOAD PUSH32 0x586689DB7536874B78A6EAC0F58556A56A106985743F7C16A699B27BB02F88BD SWAP1 DUP2 SSTORE SWAP1 MLOAD PUSH32 0x586689DB7536874B78A6EAC0F58556A56A106985743F7C16A699B27BB02F88BE SSTORE SWAP2 MLOAD SWAP1 SWAP3 POP PUSH32 0x586689DB7536874B78A6EAC0F58556A56A106985743F7C16A699B27BB02F88BF SWAP1 PUSH3 0x8E4 SWAP1 DUP3 PUSH3 0x993 JUMP JUMPDEST POP POP PUSH1 0xB PUSH1 0x9 SSTORE POP JUMP JUMPDEST PUSH4 0x4E487B71 PUSH1 0xE0 SHL PUSH1 0x0 MSTORE PUSH1 0x41 PUSH1 0x4 MSTORE PUSH1 0x24 PUSH1 0x0 REVERT JUMPDEST PUSH1 0x1 DUP2 DUP2 SHR SWAP1 DUP3 AND DUP1 PUSH3 0x919 JUMPI PUSH1 0x7F DUP3 AND SWAP2 POP JUMPDEST PUSH1 0x20 DUP3 LT DUP2 SUB PUSH3 0x93A JUMPI PUSH4 0x4E487B71 PUSH1 0xE0 SHL PUSH1 0x0 MSTORE PUSH1 0x22 PUSH1 0x4 MSTORE PUSH1 0x24 PUSH1 0x0 REVERT JUMPDEST POP SWAP2 SWAP1 POP JUMP JUMPDEST PUSH1 0x1F DUP3 GT ISZERO PUSH3 0x98E JUMPI PUSH1 0x0 DUP2 DUP2 MSTORE PUSH1 0x20 DUP2 KECCAK256 PUSH1 0x1F DUP6 ADD PUSH1 0x5 SHR DUP2 ADD PUSH1 0x20 DUP7 LT ISZERO PUSH3 0x969 JUMPI POP DUP1 JUMPDEST PUSH1 0x1F DUP6 ADD PUSH1 0x5 SHR DUP3 ADD SWAP2 POP JUMPDEST DUP2 DUP2 LT ISZERO PUSH3 0x98A JUMPI DUP3 DUP2 SSTORE PUSH1 0x1 ADD PUSH3 0x975 JUMP JUMPDEST POP POP POP JUMPDEST POP POP POP JUMP JUMPDEST DUP2 MLOAD PUSH1 0x1 PUSH1 0x1 PUSH1 0x40 SHL SUB DUP2 GT ISZERO PUSH3 0x9AF JUMPI PUSH3 0x9AF PUSH3 0x8EE JUMP JUMPDEST PUSH3 0x9C7 DUP2 PUSH3 0x9C0 DUP5 SLOAD PUSH3 0x904 JUMP JUMPDEST DUP5 PUSH3 0x940 JUMP JUMPDEST PUSH1 0x20 DUP1 PUSH1 0x1F DUP4 GT PUSH1 0x1 DUP2 EQ PUSH3 0x9FF JUMPI PUSH1 0x0 DUP5 ISZERO PUSH3 0x9E6 JUMPI POP DUP6 DUP4 ADD MLOAD JUMPDEST PUSH1 0x0 NOT PUSH1 0x3 DUP7 SWAP1 SHL SHR NOT AND PUSH1 0x1 DUP6 SWAP1 SHL OR DUP6 SSTORE PUSH3 0x98A JUMP JUMPDEST PUSH1 0x0 DUP6 DUP2 MSTORE PUSH1 0x20 DUP2 KECCAK256 PUSH1 0x1F NOT DUP7 AND SWAP2 JUMPDEST DUP3 DUP2 LT ISZERO PUSH3 0xA30 JUMPI DUP9 DUP7 ADD MLOAD DUP3 SSTORE SWAP5 DUP5 ADD SWAP5 PUSH1 0x1 SWAP1 SWAP2 ADD SWAP1 DUP5 ADD PUSH3 0xA0F JUMP JUMPDEST POP DUP6 DUP3 LT ISZERO PUSH3 0xA4F JUMPI DUP8 DUP6 ADD MLOAD PUSH1 0x0 NOT PUSH1 0x3 DUP9 SWAP1 SHL PUSH1 0xF8 AND SHR NOT AND DUP2 SSTORE JUMPDEST POP POP POP POP POP PUSH1 0x1 SWAP1 DUP2 SHL ADD SWAP1 SSTORE POP JUMP JUMPDEST PUSH1 0x80 MLOAD PUSH2 0x1887 PUSH3 0xAAC PUSH1 0x0 CODECOPY PUSH1 0x0 DUP2 DUP2 PUSH2 0x2E2 ADD MSTORE DUP2 DUP2 PUSH2 0x578 ADD MSTORE DUP2 DUP2 PUSH2 0x638 ADD MSTORE DUP2 DUP2 PUSH2 0x78D ADD MSTORE DUP2 DUP2 PUSH2 0x969 ADD MSTORE DUP2 DUP2 PUSH2 0xA66 ADD MSTORE DUP2 DUP2 PUSH2 0xD93 ADD MSTORE PUSH2 0xEFA ADD MSTORE PUSH2 0x1887 PUSH1 0x0 RETURN INVALID PUSH1 0x80 PUSH1 0x40 MSTORE CALLVALUE DUP1 ISZERO PUSH2 0x10 JUMPI PUSH1 0x0 DUP1 REVERT JUMPDEST POP PUSH1 0x4 CALLDATASIZE LT PUSH2 0x18E JUMPI PUSH1 0x0 CALLDATALOAD PUSH1 0xE0 SHR DUP1 PUSH4 0x77B37FE7 GT PUSH2 0xDE JUMPI DUP1 PUSH4 0xA694FC3A GT PUSH2 0x97 JUMPI DUP1 PUSH4 0xC8F33C91 GT PUSH2 0x71 JUMPI DUP1 PUSH4 0xC8F33C91 EQ PUSH2 0x403 JUMPI DUP1 PUSH4 0xE8C09419 EQ PUSH2 0x40C JUMPI DUP1 PUSH4 0xEE172546 EQ PUSH2 0x41F JUMPI DUP1 PUSH4 0xF2FDE38B EQ PUSH2 0x428 JUMPI PUSH1 0x0 DUP1 REVERT JUMPDEST DUP1 PUSH4 0xA694FC3A EQ PUSH2 0x3B8 JUMPI DUP1 PUSH4 0xB2596A67 EQ PUSH2 0x3CB JUMPI DUP1 PUSH4 0xBBADC93A EQ PUSH2 0x3DE JUMPI PUSH1 0x0 DUP1 REVERT JUMPDEST DUP1 PUSH4 0x77B37FE7 EQ PUSH2 0x304 JUMPI DUP1 PUSH4 0x817B1CD2 EQ PUSH2 0x317 JUMPI DUP1 PUSH4 0x8DA5CB5B EQ PUSH2 0x320 JUMPI DUP1 PUSH4 0x8DA7AD23 EQ PUSH2 0x331 JUMPI DUP1 PUSH4 0x8F10369A EQ PUSH2 0x3A6 JUMPI DUP1 PUSH4 0x939D6237 EQ PUSH2 0x3AF JUMPI PUSH1 0x0 DUP1 REVERT JUMPDEST DUP1 PUSH4 0x3660106E GT PUSH2 0x14B JUMPI DUP1 PUSH4 0x609E276E GT PUSH2 0x125 JUMPI DUP1 PUSH4 0x609E276E EQ PUSH2 0x2AF JUMPI DUP1 PUSH4 0x66DA5815 EQ PUSH2 0x2C2 JUMPI DUP1 PUSH4 0x715018A6 EQ PUSH2 0x2D5 JUMPI DUP1 PUSH4 0x75DAA3DE EQ PUSH2 0x2DD JUMPI PUSH1 0x0 DUP1 REVERT JUMPDEST DUP1 PUSH4 0x3660106E EQ PUSH2 0x258 JUMPI DUP1 PUSH4 0x372500AB EQ PUSH2 0x294 JUMPI DUP1 PUSH4 0x58EB9700 EQ PUSH2 0x29C JUMPI PUSH1 0x0 DUP1 REVERT JUMPDEST DUP1 PUSH4 0x30101DB EQ PUSH2 0x193 JUMPI DUP1 PUSH4 0x3B93940 EQ PUSH2 0x1BE JUMPI DUP1 PUSH4 0x6B091F9 EQ PUSH2 0x1F1 JUMPI DUP1 PUSH4 0x1F578031 EQ PUSH2 0x206 JUMPI DUP1 PUSH4 0x285109D1 EQ PUSH2 0x21D JUMPI DUP1 PUSH4 0x2E17DE78 EQ PUSH2 0x245 JUMPI JUMPDEST PUSH1 0x0 DUP1 REVERT JUMPDEST PUSH2 0x1A6 PUSH2 0x1A1 CALLDATASIZE PUSH1 0x4 PUSH2 0x15C9 JUMP JUMPDEST PUSH2 0x43B JUMP JUMPDEST PUSH1 0x40 MLOAD PUSH2 0x1B5 SWAP4 SWAP3 SWAP2 SWAP1 PUSH2 0x1628 JUMP JUMPDEST PUSH1 0x40 MLOAD DUP1 SWAP2 SUB SWAP1 RETURN JUMPDEST PUSH2 0x1D9 PUSH20 0x1F0A316BA43224D87D7024C312FF52E1C8A2CED9 DUP2 JUMP JUMPDEST PUSH1 0x40 MLOAD PUSH1 0x1 PUSH1 0x1 PUSH1 0xA0 SHL SUB SWAP1 SWAP2 AND DUP2 MSTORE PUSH1 0x20 ADD PUSH2 0x1B5 JUMP JUMPDEST PUSH2 0x204 PUSH2 0x1FF CALLDATASIZE PUSH1 0x4 PUSH2 0x166C JUMP JUMPDEST PUSH2 0x54A JUMP JUMPDEST STOP JUMPDEST PUSH2 0x20F PUSH1 0x9 SLOAD DUP2 JUMP JUMPDEST PUSH1 0x40 MLOAD SWAP1 DUP2 MSTORE PUSH1 0x20 ADD PUSH2 0x1B5 JUMP JUMPDEST PUSH2 0x225 PUSH2 0x605 JUMP JUMPDEST PUSH1 0x40 DUP1 MLOAD SWAP5 DUP6 MSTORE PUSH1 0x20 DUP6 ADD SWAP4 SWAP1 SWAP4 MSTORE SWAP2 DUP4 ADD MSTORE PUSH1 0x60 DUP3 ADD MSTORE PUSH1 0x80 ADD PUSH2 0x1B5 JUMP JUMPDEST PUSH2 0x204 PUSH2 0x253 CALLDATASIZE PUSH1 0x4 PUSH2 0x15C9 JUMP JUMPDEST PUSH2 0x6B1 JUMP JUMPDEST PUSH2 0x20F PUSH2 0x266 CALLDATASIZE PUSH1 0x4 PUSH2 0x1696 JUMP JUMPDEST PUSH1 0x1 PUSH1 0x1 PUSH1 0xA0 SHL SUB AND PUSH1 0x0 SWAP1 DUP2 MSTORE PUSH1 0x7 PUSH1 0x20 SWAP1 DUP2 MSTORE PUSH1 0x40 DUP1 DUP4 KECCAK256 PUSH1 0x3 ADD SLOAD DUP4 MSTORE PUSH1 0x8 SWAP1 SWAP2 MSTORE SWAP1 KECCAK256 PUSH1 0x1 ADD SLOAD SWAP1 JUMP JUMPDEST PUSH2 0x204 PUSH2 0x860 JUMP JUMPDEST PUSH2 0x204 PUSH2 0x2AA CALLDATASIZE PUSH1 0x4 PUSH2 0x15C9 JUMP JUMPDEST PUSH2 0xA3C JUMP JUMPDEST PUSH2 0x204 PUSH2 0x2BD CALLDATASIZE PUSH1 0x4 PUSH2 0x166C JUMP JUMPDEST PUSH2 0xAF7 JUMP JUMPDEST PUSH2 0x204 PUSH2 0x2D0 CALLDATASIZE PUSH1 0x4 PUSH2 0x15C9 JUMP JUMPDEST PUSH2 0xBEF JUMP JUMPDEST PUSH2 0x204 PUSH2 0xC04 JUMP JUMPDEST PUSH2 0x1D9 PUSH32 0x0 DUP2 JUMP JUMPDEST PUSH2 0x204 PUSH2 0x312 CALLDATASIZE PUSH1 0x4 PUSH2 0x1696 JUMP JUMPDEST PUSH2 0xC16 JUMP JUMPDEST PUSH2 0x20F PUSH1 0x2 SLOAD DUP2 JUMP JUMPDEST PUSH1 0x0 SLOAD PUSH1 0x1 PUSH1 0x1 PUSH1 0xA0 SHL SUB AND PUSH2 0x1D9 JUMP JUMPDEST PUSH2 0x377 PUSH2 0x33F CALLDATASIZE PUSH1 0x4 PUSH2 0x1696 JUMP JUMPDEST PUSH1 0x7 PUSH1 0x20 MSTORE PUSH1 0x0 SWAP1 DUP2 MSTORE PUSH1 0x40 SWAP1 KECCAK256 DUP1 SLOAD PUSH1 0x1 DUP3 ADD SLOAD PUSH1 0x2 DUP4 ADD SLOAD PUSH1 0x3 DUP5 ADD SLOAD PUSH1 0x4 DUP6 ADD SLOAD PUSH1 0x5 SWAP1 SWAP6 ADD SLOAD SWAP4 SWAP5 SWAP3 SWAP4 SWAP2 SWAP3 SWAP1 SWAP2 PUSH1 0xFF AND DUP7 JUMP JUMPDEST PUSH1 0x40 DUP1 MLOAD SWAP7 DUP8 MSTORE PUSH1 0x20 DUP8 ADD SWAP6 SWAP1 SWAP6 MSTORE SWAP4 DUP6 ADD SWAP3 SWAP1 SWAP3 MSTORE PUSH1 0x60 DUP5 ADD MSTORE PUSH1 0x80 DUP4 ADD MSTORE ISZERO ISZERO PUSH1 0xA0 DUP3 ADD MSTORE PUSH1 0xC0 ADD PUSH2 0x1B5 JUMP JUMPDEST PUSH2 0x20F PUSH1 0x4 SLOAD DUP2 JUMP JUMPDEST PUSH2 0x20F PUSH1 0x6 SLOAD DUP2 JUMP JUMPDEST PUSH2 0x204 PUSH2 0x3C6 CALLDATASIZE PUSH1 0x4 PUSH2 0x15C9 JUMP JUMPDEST PUSH2 0xD0E JUMP JUMPDEST PUSH2 0x1A6 PUSH2 0x3D9 CALLDATASIZE PUSH1 0x4 PUSH2 0x15C9 JUMP JUMPDEST PUSH2 0xFD1 JUMP JUMPDEST PUSH2 0x3F1 PUSH2 0x3EC CALLDATASIZE PUSH1 0x4 PUSH2 0x1696 JUMP JUMPDEST PUSH2 0x107C JUMP JUMPDEST PUSH1 0x40 MLOAD PUSH2 0x1B5 SWAP7 SWAP6 SWAP5 SWAP4 SWAP3 SWAP2 SWAP1 PUSH2 0x16B1 JUMP JUMPDEST PUSH2 0x20F PUSH1 0x5 SLOAD DUP2 JUMP JUMPDEST PUSH2 0x204 PUSH2 0x41A CALLDATASIZE PUSH1 0x4 PUSH2 0x16F0 JUMP JUMPDEST PUSH2 0x1226 JUMP JUMPDEST PUSH2 0x20F PUSH1 0x3 SLOAD DUP2 JUMP JUMPDEST PUSH2 0x204 PUSH2 0x436 CALLDATASIZE PUSH1 0x4 PUSH2 0x1696 JUMP JUMPDEST PUSH2 0x12D1 JUMP JUMPDEST PUSH1 0x0 DUP1 PUSH1 0x60 PUSH1 0x9 SLOAD DUP5 LT PUSH2 0x496 JUMPI PUSH1 0x40 MLOAD PUSH3 0x461BCD PUSH1 0xE5 SHL DUP2 MSTORE PUSH1 0x20 PUSH1 0x4 DUP3 ADD MSTORE PUSH1 0x1D PUSH1 0x24 DUP3 ADD MSTORE PUSH32 0x5374616B696E67526577617264733A20696E76616C6964206C6576656C000000 PUSH1 0x44 DUP3 ADD MSTORE PUSH1 0x64 ADD JUMPDEST PUSH1 0x40 MLOAD DUP1 SWAP2 SUB SWAP1 REVERT JUMPDEST PUSH1 0x0 DUP5 DUP2 MSTORE PUSH1 0x8 PUSH1 0x20 MSTORE PUSH1 0x40 SWAP1 KECCAK256 DUP1 SLOAD PUSH1 0x1 DUP3 ADD SLOAD PUSH1 0x2 DUP4 ADD DUP1 SLOAD DUP2 SWAP1 PUSH2 0x4BC SWAP1 PUSH2 0x1712 JUMP JUMPDEST DUP1 PUSH1 0x1F ADD PUSH1 0x20 DUP1 SWAP2 DIV MUL PUSH1 0x20 ADD PUSH1 0x40 MLOAD SWAP1 DUP2 ADD PUSH1 0x40 MSTORE DUP1 SWAP3 SWAP2 SWAP1 DUP2 DUP2 MSTORE PUSH1 0x20 ADD DUP3 DUP1 SLOAD PUSH2 0x4E8 SWAP1 PUSH2 0x1712 JUMP JUMPDEST DUP1 ISZERO PUSH2 0x535 JUMPI DUP1 PUSH1 0x1F LT PUSH2 0x50A JUMPI PUSH2 0x100 DUP1 DUP4 SLOAD DIV MUL DUP4 MSTORE SWAP2 PUSH1 0x20 ADD SWAP2 PUSH2 0x535 JUMP JUMPDEST DUP3 ADD SWAP2 SWAP1 PUSH1 0x0 MSTORE PUSH1 0x20 PUSH1 0x0 KECCAK256 SWAP1 JUMPDEST DUP2 SLOAD DUP2 MSTORE SWAP1 PUSH1 0x1 ADD SWAP1 PUSH1 0x20 ADD DUP1 DUP4 GT PUSH2 0x518 JUMPI DUP3 SWAP1 SUB PUSH1 0x1F AND DUP3 ADD SWAP2 JUMPDEST POP POP POP POP POP SWAP1 POP SWAP4 POP SWAP4 POP SWAP4 POP POP SWAP2 SWAP4 SWAP1 SWAP3 POP JUMP JUMPDEST PUSH2 0x552 PUSH2 0x1347 JUMP JUMPDEST PUSH1 0x40 MLOAD PUSH4 0xA9059CBB PUSH1 0xE0 SHL DUP2 MSTORE PUSH1 0x1 PUSH1 0x1 PUSH1 0xA0 SHL SUB DUP4 DUP2 AND PUSH1 0x4 DUP4 ADD MSTORE PUSH1 0x24 DUP3 ADD DUP4 SWAP1 MSTORE PUSH32 0x0 AND SWAP1 PUSH4 0xA9059CBB SWAP1 PUSH1 0x44 ADD PUSH1 0x20 PUSH1 0x40 MLOAD DUP1 DUP4 SUB DUP2 PUSH1 0x0 DUP8 GAS CALL ISZERO DUP1 ISZERO PUSH2 0x5C1 JUMPI RETURNDATASIZE PUSH1 0x0 DUP1 RETURNDATACOPY RETURNDATASIZE PUSH1 0x0 REVERT JUMPDEST POP POP POP POP PUSH1 0x40 MLOAD RETURNDATASIZE PUSH1 0x1F NOT PUSH1 0x1F DUP3 ADD AND DUP3 ADD DUP1 PUSH1 0x40 MSTORE POP DUP2 ADD SWAP1 PUSH2 0x5E5 SWAP2 SWAP1 PUSH2 0x174C JUMP JUMPDEST PUSH2 0x601 JUMPI PUSH1 0x40 MLOAD PUSH3 0x461BCD PUSH1 0xE5 SHL DUP2 MSTORE PUSH1 0x4 ADD PUSH2 0x48D SWAP1 PUSH2 0x1775 JUMP JUMPDEST POP POP JUMP JUMPDEST PUSH1 0x2 SLOAD PUSH1 0x3 SLOAD PUSH1 0x4 DUP1 SLOAD PUSH1 0x40 MLOAD PUSH4 0x70A08231 PUSH1 0xE0 SHL DUP2 MSTORE ADDRESS SWAP3 DUP2 ADD SWAP3 SWAP1 SWAP3 MSTORE PUSH1 0x0 SWAP4 DUP5 SWAP4 DUP5 SWAP4 DUP5 SWAP4 SWAP1 PUSH1 0x1 PUSH1 0x1 PUSH1 0xA0 SHL SUB PUSH32 0x0 AND SWAP1 PUSH4 0x70A08231 SWAP1 PUSH1 0x24 ADD PUSH1 0x20 PUSH1 0x40 MLOAD DUP1 DUP4 SUB DUP2 DUP7 GAS STATICCALL ISZERO DUP1 ISZERO PUSH2 0x67F JUMPI RETURNDATASIZE PUSH1 0x0 DUP1 RETURNDATACOPY RETURNDATASIZE PUSH1 0x0 REVERT JUMPDEST POP POP POP POP PUSH1 0x40 MLOAD RETURNDATASIZE PUSH1 0x1F NOT PUSH1 0x1F DUP3 ADD AND DUP3 ADD DUP1 PUSH1 0x40 MSTORE POP DUP2 ADD SWAP1 PUSH2 0x6A3 SWAP2 SWAP1 PUSH2 0x17AC JUMP JUMPDEST SWAP4 POP SWAP4 POP SWAP4 POP SWAP4 POP SWAP1 SWAP2 SWAP3 SWAP4 JUMP JUMPDEST PUSH2 0x6B9 PUSH2 0x13A1 JUMP JUMPDEST CALLER PUSH1 0x0 SWAP1 DUP2 MSTORE PUSH1 0x7 PUSH1 0x20 MSTORE PUSH1 0x40 SWAP1 KECCAK256 DUP1 SLOAD DUP3 GT ISZERO PUSH2 0x72C JUMPI PUSH1 0x40 MLOAD PUSH3 0x461BCD PUSH1 0xE5 SHL DUP2 MSTORE PUSH1 0x20 PUSH1 0x4 DUP3 ADD MSTORE PUSH1 0x2A PUSH1 0x24 DUP3 ADD MSTORE PUSH32 0x5374616B696E67526577617264733A20696E73756666696369656E7420737461 PUSH1 0x44 DUP3 ADD MSTORE PUSH10 0x1AD95908185B5BDD5B9D PUSH1 0xB2 SHL PUSH1 0x64 DUP3 ADD MSTORE PUSH1 0x84 ADD PUSH2 0x48D JUMP JUMPDEST PUSH2 0x734 PUSH2 0x13FA JUMP JUMPDEST PUSH2 0x73D CALLER PUSH2 0x1478 JUMP JUMPDEST DUP1 SLOAD PUSH2 0x749 SWAP1 DUP4 PUSH2 0x14FE JUMP JUMPDEST DUP2 SSTORE PUSH1 0x2 SLOAD PUSH2 0x758 SWAP1 DUP4 PUSH2 0x14FE JUMP JUMPDEST PUSH1 0x2 SSTORE DUP1 SLOAD PUSH1 0x0 SUB PUSH2 0x771 JUMPI PUSH1 0x5 DUP2 ADD DUP1 SLOAD PUSH1 0xFF NOT AND SWAP1 SSTORE JUMPDEST PUSH1 0x40 MLOAD PUSH4 0xA9059CBB PUSH1 0xE0 SHL DUP2 MSTORE CALLER PUSH1 0x4 DUP3 ADD MSTORE PUSH1 0x24 DUP2 ADD DUP4 SWAP1 MSTORE PUSH32 0x0 PUSH1 0x1 PUSH1 0x1 PUSH1 0xA0 SHL SUB AND SWAP1 PUSH4 0xA9059CBB SWAP1 PUSH1 0x44 ADD PUSH1 0x20 PUSH1 0x40 MLOAD DUP1 DUP4 SUB DUP2 PUSH1 0x0 DUP8 GAS CALL ISZERO DUP1 ISZERO PUSH2 0x7DE JUMPI RETURNDATASIZE PUSH1 0x0 DUP1 RETURNDATACOPY RETURNDATASIZE PUSH1 0x0 REVERT JUMPDEST POP POP POP POP PUSH1 0x40 MLOAD RETURNDATASIZE PUSH1 0x1F NOT PUSH1 0x1F DUP3 ADD AND DUP3 ADD DUP1 PUSH1 0x40 MSTORE POP DUP2 ADD SWAP1 PUSH2 0x802 SWAP2 SWAP1 PUSH2 0x174C JUMP JUMPDEST PUSH2 0x81E JUMPI PUSH1 0x40 MLOAD PUSH3 0x461BCD PUSH1 0xE5 SHL DUP2 MSTORE PUSH1 0x4 ADD PUSH2 0x48D SWAP1 PUSH2 0x1775 JUMP JUMPDEST PUSH1 0x40 MLOAD DUP3 DUP2 MSTORE CALLER SWAP1 PUSH32 0xF5BB82176FEB1B5E747E28471AA92156A04D9F3AB9F45F28E2D704232B93F75 SWAP1 PUSH1 0x20 ADD PUSH1 0x40 MLOAD DUP1 SWAP2 SUB SWAP1 LOG2 POP PUSH2 0x85D PUSH1 0x1 DUP1 SSTORE JUMP JUMPDEST POP JUMP JUMPDEST PUSH2 0x868 PUSH2 0x13A1 JUMP JUMPDEST PUSH2 0x870 PUSH2 0x13FA JUMP JUMPDEST PUSH2 0x879 CALLER PUSH2 0x1478 JUMP JUMPDEST CALLER PUSH1 0x0 SWAP1 DUP2 MSTORE PUSH1 0x7 PUSH1 0x20 MSTORE PUSH1 0x40 DUP2 KECCAK256 PUSH1 0x1 DUP2 ADD SLOAD PUSH1 0x6 SLOAD DUP3 SLOAD SWAP3 SWAP4 SWAP3 PUSH2 0x8BE SWAP3 SWAP2 PUSH2 0x8B8 SWAP2 PUSH8 0xDE0B6B3A7640000 SWAP2 PUSH2 0x8B2 SWAP2 SWAP1 PUSH2 0x1513 JUMP JUMPDEST SWAP1 PUSH2 0x151F JUMP JUMPDEST SWAP1 PUSH2 0x14FE JUMP JUMPDEST SWAP1 POP PUSH1 0x0 DUP2 GT PUSH2 0x91C JUMPI PUSH1 0x40 MLOAD PUSH3 0x461BCD PUSH1 0xE5 SHL DUP2 MSTORE PUSH1 0x20 PUSH1 0x4 DUP3 ADD MSTORE PUSH1 0x23 PUSH1 0x24 DUP3 ADD MSTORE PUSH32 0x5374616B696E67526577617264733A206E6F207265776172647320746F20636C PUSH1 0x44 DUP3 ADD MSTORE PUSH3 0x61696D PUSH1 0xE8 SHL PUSH1 0x64 DUP3 ADD MSTORE PUSH1 0x84 ADD PUSH2 0x48D JUMP JUMPDEST PUSH1 0x6 SLOAD DUP3 SLOAD PUSH2 0x938 SWAP2 PUSH8 0xDE0B6B3A7640000 SWAP2 PUSH2 0x8B2 SWAP2 PUSH2 0x1513 JUMP JUMPDEST PUSH1 0x1 DUP4 ADD SSTORE PUSH1 0x3 SLOAD PUSH2 0x94A SWAP1 DUP3 PUSH2 0x152B JUMP JUMPDEST PUSH1 0x3 SSTORE PUSH1 0x40 MLOAD PUSH4 0xA9059CBB PUSH1 0xE0 SHL DUP2 MSTORE CALLER PUSH1 0x4 DUP3 ADD MSTORE PUSH1 0x24 DUP2 ADD DUP3 SWAP1 MSTORE PUSH32 0x0 PUSH1 0x1 PUSH1 0x1 PUSH1 0xA0 SHL SUB AND SWAP1 PUSH4 0xA9059CBB SWAP1 PUSH1 0x44 ADD PUSH1 0x20 PUSH1 0x40 MLOAD DUP1 DUP4 SUB DUP2 PUSH1 0x0 DUP8 GAS CALL ISZERO DUP1 ISZERO PUSH2 0x9BA JUMPI RETURNDATASIZE PUSH1 0x0 DUP1 RETURNDATACOPY RETURNDATASIZE PUSH1 0x0 REVERT JUMPDEST POP POP POP POP PUSH1 0x40 MLOAD RETURNDATASIZE PUSH1 0x1F NOT PUSH1 0x1F DUP3 ADD AND DUP3 ADD DUP1 PUSH1 0x40 MSTORE POP DUP2 ADD SWAP1 PUSH2 0x9DE SWAP2 SWAP1 PUSH2 0x174C JUMP JUMPDEST PUSH2 0x9FA JUMPI PUSH1 0x40 MLOAD PUSH3 0x461BCD PUSH1 0xE5 SHL DUP2 MSTORE PUSH1 0x4 ADD PUSH2 0x48D SWAP1 PUSH2 0x1775 JUMP JUMPDEST PUSH1 0x40 MLOAD DUP2 DUP2 MSTORE CALLER SWAP1 PUSH32 0xFC30CDDEA38E2BF4D6EA7D3F9ED3B6AD7F176419F4963BD81318067A4AEE73FE SWAP1 PUSH1 0x20 ADD PUSH1 0x40 MLOAD DUP1 SWAP2 SUB SWAP1 LOG2 POP POP PUSH2 0xA3A PUSH1 0x1 DUP1 SSTORE JUMP JUMPDEST JUMP JUMPDEST PUSH2 0xA44 PUSH2 0x1347 JUMP JUMPDEST PUSH1 0x40 MLOAD PUSH4 0x23B872DD PUSH1 0xE0 SHL DUP2 MSTORE CALLER PUSH1 0x4 DUP3 ADD MSTORE ADDRESS PUSH1 0x24 DUP3 ADD MSTORE PUSH1 0x44 DUP2 ADD DUP3 SWAP1 MSTORE PUSH32 0x0 PUSH1 0x1 PUSH1 0x1 PUSH1 0xA0 SHL SUB AND SWAP1 PUSH4 0x23B872DD SWAP1 PUSH1 0x64 ADD PUSH1 0x20 PUSH1 0x40 MLOAD DUP1 DUP4 SUB DUP2 PUSH1 0x0 DUP8 GAS CALL ISZERO DUP1 ISZERO PUSH2 0xAB7 JUMPI RETURNDATASIZE PUSH1 0x0 DUP1 RETURNDATACOPY RETURNDATASIZE PUSH1 0x0 REVERT JUMPDEST POP POP POP POP PUSH1 0x40 MLOAD RETURNDATASIZE PUSH1 0x1F NOT PUSH1 0x1F DUP3 ADD AND DUP3 ADD DUP1 PUSH1 0x40 MSTORE POP DUP2 ADD SWAP1 PUSH2 0xADB SWAP2 SWAP1 PUSH2 0x174C JUMP JUMPDEST PUSH2 0x85D JUMPI PUSH1 0x40 MLOAD PUSH3 0x461BCD PUSH1 0xE5 SHL DUP2 MSTORE PUSH1 0x4 ADD PUSH2 0x48D SWAP1 PUSH2 0x1775 JUMP JUMPDEST PUSH2 0xAFF PUSH2 0x1347 JUMP JUMPDEST PUSH1 0x1 PUSH1 0x1 PUSH1 0xA0 SHL SUB DUP3 AND PUSH1 0x0 SWAP1 DUP2 MSTORE PUSH1 0x7 PUSH1 0x20 MSTORE PUSH1 0x40 SWAP1 KECCAK256 PUSH1 0x3 DUP2 ADD SLOAD PUSH1 0x4 DUP3 ADD SLOAD PUSH2 0xB2B SWAP1 DUP5 PUSH2 0x152B JUMP JUMPDEST PUSH1 0x4 DUP4 ADD DUP2 SWAP1 SSTORE PUSH2 0xB3B SWAP1 PUSH2 0x1537 JUMP JUMPDEST PUSH1 0x3 DUP4 ADD DUP2 SWAP1 SSTORE PUSH1 0x4 DUP4 ADD SLOAD PUSH1 0x40 DUP1 MLOAD SWAP2 DUP3 MSTORE PUSH1 0x20 DUP3 ADD SWAP3 SWAP1 SWAP3 MSTORE PUSH1 0x1 PUSH1 0x1 PUSH1 0xA0 SHL SUB DUP7 AND SWAP2 PUSH32 0xE0B5124B12E878158288D1002ED1FB960FAFF0EC1C7B3168F86D9D1AFD1B0D8B SWAP2 ADD PUSH1 0x40 MLOAD DUP1 SWAP2 SUB SWAP1 LOG2 DUP1 DUP3 PUSH1 0x3 ADD SLOAD GT ISZERO PUSH2 0xBE9 JUMPI DUP4 PUSH1 0x1 PUSH1 0x1 PUSH1 0xA0 SHL SUB AND PUSH32 0xEEC61667DD6EEECDCCFEF3C906E0FD047CCA672804901AC4254D8545E9A426D4 DUP3 DUP5 PUSH1 0x3 ADD SLOAD PUSH1 0x40 MLOAD PUSH2 0xBE0 SWAP3 SWAP2 SWAP1 SWAP2 DUP3 MSTORE PUSH1 0x20 DUP3 ADD MSTORE PUSH1 0x40 ADD SWAP1 JUMP JUMPDEST PUSH1 0x40 MLOAD DUP1 SWAP2 SUB SWAP1 LOG2 JUMPDEST POP POP POP POP JUMP JUMPDEST PUSH2 0xBF7 PUSH2 0x1347 JUMP JUMPDEST PUSH2 0xBFF PUSH2 0x13FA JUMP JUMPDEST PUSH1 0x4 SSTORE JUMP JUMPDEST PUSH2 0xC0C PUSH2 0x1347 JUMP JUMPDEST PUSH2 0xA3A PUSH1 0x0 PUSH2 0x1579 JUMP JUMPDEST PUSH2 0xC1E PUSH2 0x1347 JUMP JUMPDEST PUSH1 0x1 PUSH1 0x1 PUSH1 0xA0 SHL SUB DUP2 AND PUSH1 0x0 SWAP1 DUP2 MSTORE PUSH1 0x7 PUSH1 0x20 MSTORE PUSH1 0x40 SWAP1 KECCAK256 PUSH1 0x3 DUP2 ADD SLOAD PUSH1 0x4 DUP3 ADD SLOAD PUSH2 0xC4B SWAP1 PUSH1 0x1 PUSH2 0x152B JUMP JUMPDEST PUSH1 0x4 DUP4 ADD DUP2 SWAP1 SSTORE PUSH2 0xC5B SWAP1 PUSH2 0x1537 JUMP JUMPDEST PUSH1 0x3 DUP4 ADD DUP2 SWAP1 SSTORE PUSH1 0x4 DUP4 ADD SLOAD PUSH1 0x40 DUP1 MLOAD SWAP2 DUP3 MSTORE PUSH1 0x20 DUP3 ADD SWAP3 SWAP1 SWAP3 MSTORE PUSH1 0x1 PUSH1 0x1 PUSH1 0xA0 SHL SUB DUP6 AND SWAP2 PUSH32 0xE0B5124B12E878158288D1002ED1FB960FAFF0EC1C7B3168F86D9D1AFD1B0D8B SWAP2 ADD PUSH1 0x40 MLOAD DUP1 SWAP2 SUB SWAP1 LOG2 DUP1 DUP3 PUSH1 0x3 ADD SLOAD GT ISZERO PUSH2 0xD09 JUMPI DUP3 PUSH1 0x1 PUSH1 0x1 PUSH1 0xA0 SHL SUB AND PUSH32 0xEEC61667DD6EEECDCCFEF3C906E0FD047CCA672804901AC4254D8545E9A426D4 DUP3 DUP5 PUSH1 0x3 ADD SLOAD PUSH1 0x40 MLOAD PUSH2 0xD00 SWAP3 SWAP2 SWAP1 SWAP2 DUP3 MSTORE PUSH1 0x20 DUP3 ADD MSTORE PUSH1 0x40 ADD SWAP1 JUMP JUMPDEST PUSH1 0x40 MLOAD DUP1 SWAP2 SUB SWAP1 LOG2 JUMPDEST POP POP POP JUMP JUMPDEST PUSH2 0xD16 PUSH2 0x13A1 JUMP JUMPDEST PUSH1 0x0 DUP2 GT PUSH2 0xD7C JUMPI PUSH1 0x40 MLOAD PUSH3 0x461BCD PUSH1 0xE5 SHL DUP2 MSTORE PUSH1 0x20 PUSH1 0x4 DUP3 ADD MSTORE PUSH1 0x2D PUSH1 0x24 DUP3 ADD MSTORE PUSH32 0x5374616B696E67526577617264733A20616D6F756E74206D7573742062652067 PUSH1 0x44 DUP3 ADD MSTORE PUSH13 0x726561746572207468616E203 PUSH1 0x9C SHL PUSH1 0x64 DUP3 ADD MSTORE PUSH1 0x84 ADD PUSH2 0x48D JUMP JUMPDEST PUSH1 0x40 MLOAD PUSH4 0x70A08231 PUSH1 0xE0 SHL DUP2 MSTORE CALLER PUSH1 0x4 DUP3 ADD MSTORE DUP2 SWAP1 PUSH32 0x0 PUSH1 0x1 PUSH1 0x1 PUSH1 0xA0 SHL SUB AND SWAP1 PUSH4 0x70A08231 SWAP1 PUSH1 0x24 ADD PUSH1 0x20 PUSH1 0x40 MLOAD DUP1 DUP4 SUB DUP2 DUP7 GAS STATICCALL ISZERO DUP1 ISZERO PUSH2 0xDE2 JUMPI RETURNDATASIZE PUSH1 0x0 DUP1 RETURNDATACOPY RETURNDATASIZE PUSH1 0x0 REVERT JUMPDEST POP POP POP POP PUSH1 0x40 MLOAD RETURNDATASIZE PUSH1 0x1F NOT PUSH1 0x1F DUP3 ADD AND DUP3 ADD DUP1 PUSH1 0x40 MSTORE POP DUP2 ADD SWAP1 PUSH2 0xE06 SWAP2 SWAP1 PUSH2 0x17AC JUMP JUMPDEST LT ISZERO PUSH2 0xE60 JUMPI PUSH1 0x40 MLOAD PUSH3 0x461BCD PUSH1 0xE5 SHL DUP2 MSTORE PUSH1 0x20 PUSH1 0x4 DUP3 ADD MSTORE PUSH1 0x24 DUP1 DUP3 ADD MSTORE PUSH32 0x5374616B696E67526577617264733A20696E73756666696369656E742062616C PUSH1 0x44 DUP3 ADD MSTORE PUSH4 0x616E6365 PUSH1 0xE0 SHL PUSH1 0x64 DUP3 ADD MSTORE PUSH1 0x84 ADD PUSH2 0x48D JUMP JUMPDEST PUSH2 0xE68 PUSH2 0x13FA JUMP JUMPDEST PUSH2 0xE71 CALLER PUSH2 0x1478 JUMP JUMPDEST CALLER PUSH1 0x0 SWAP1 DUP2 MSTORE PUSH1 0x7 PUSH1 0x20 MSTORE PUSH1 0x40 DUP2 KECCAK256 PUSH1 0x4 DUP2 ADD SLOAD SWAP1 SWAP2 SWAP1 PUSH2 0xE91 SWAP1 PUSH2 0x1537 JUMP JUMPDEST DUP3 SLOAD SWAP1 SWAP2 POP ISZERO PUSH2 0xEAE JUMPI DUP2 SLOAD PUSH2 0xEA7 SWAP1 DUP5 PUSH2 0x152B JUMP JUMPDEST DUP3 SSTORE PUSH2 0xEC8 JUMP JUMPDEST DUP3 DUP3 SSTORE PUSH1 0x3 DUP3 ADD DUP2 SWAP1 SSTORE PUSH1 0x5 DUP3 ADD DUP1 SLOAD PUSH1 0xFF NOT AND PUSH1 0x1 OR SWAP1 SSTORE JUMPDEST PUSH1 0x2 SLOAD PUSH2 0xED5 SWAP1 DUP5 PUSH2 0x152B JUMP JUMPDEST PUSH1 0x2 SSTORE PUSH1 0x40 MLOAD PUSH4 0x23B872DD PUSH1 0xE0 SHL DUP2 MSTORE CALLER PUSH1 0x4 DUP3 ADD MSTORE ADDRESS PUSH1 0x24 DUP3 ADD MSTORE PUSH1 0x44 DUP2 ADD DUP5 SWAP1 MSTORE PUSH32 0x0 PUSH1 0x1 PUSH1 0x1 PUSH1 0xA0 SHL SUB AND SWAP1 PUSH4 0x23B872DD SWAP1 PUSH1 0x64 ADD PUSH1 0x20 PUSH1 0x40 MLOAD DUP1 DUP4 SUB DUP2 PUSH1 0x0 DUP8 GAS CALL ISZERO DUP1 ISZERO PUSH2 0xF4B JUMPI RETURNDATASIZE PUSH1 0x0 DUP1 RETURNDATACOPY RETURNDATASIZE PUSH1 0x0 REVERT JUMPDEST POP POP POP POP PUSH1 0x40 MLOAD RETURNDATASIZE PUSH1 0x1F NOT PUSH1 0x1F DUP3 ADD AND DUP3 ADD DUP1 PUSH1 0x40 MSTORE POP DUP2 ADD SWAP1 PUSH2 0xF6F SWAP2 SWAP1 PUSH2 0x174C JUMP JUMPDEST PUSH2 0xF8B JUMPI PUSH1 0x40 MLOAD PUSH3 0x461BCD PUSH1 0xE5 SHL DUP2 MSTORE PUSH1 0x4 ADD PUSH2 0x48D SWAP1 PUSH2 0x1775 JUMP JUMPDEST PUSH1 0x40 DUP1 MLOAD DUP5 DUP2 MSTORE PUSH1 0x20 DUP2 ADD DUP4 SWAP1 MSTORE CALLER SWAP2 PUSH32 0x1449C6DD7851ABC30ABF37F57715F492010519147CC2652FBC38202C18A6EE90 SWAP2 ADD PUSH1 0x40 MLOAD DUP1 SWAP2 SUB SWAP1 LOG2 POP POP PUSH2 0x85D PUSH1 0x1 DUP1 SSTORE JUMP JUMPDEST PUSH1 0x8 PUSH1 0x20 MSTORE PUSH1 0x0 SWAP1 DUP2 MSTORE PUSH1 0x40 SWAP1 KECCAK256 DUP1 SLOAD PUSH1 0x1 DUP3 ADD SLOAD PUSH1 0x2 DUP4 ADD DUP1 SLOAD SWAP3 SWAP4 SWAP2 SWAP3 PUSH2 0xFF9 SWAP1 PUSH2 0x1712 JUMP JUMPDEST DUP1 PUSH1 0x1F ADD PUSH1 0x20 DUP1 SWAP2 DIV MUL PUSH1 0x20 ADD PUSH1 0x40 MLOAD SWAP1 DUP2 ADD PUSH1 0x40 MSTORE DUP1 SWAP3 SWAP2 SWAP1 DUP2 DUP2 MSTORE PUSH1 0x20 ADD DUP3 DUP1 SLOAD PUSH2 0x1025 SWAP1 PUSH2 0x1712 JUMP JUMPDEST DUP1 ISZERO PUSH2 0x1072 JUMPI DUP1 PUSH1 0x1F LT PUSH2 0x1047 JUMPI PUSH2 0x100 DUP1 DUP4 SLOAD DIV MUL DUP4 MSTORE SWAP2 PUSH1 0x20 ADD SWAP2 PUSH2 0x1072 JUMP JUMPDEST DUP3 ADD SWAP2 SWAP1 PUSH1 0x0 MSTORE PUSH1 0x20 PUSH1 0x0 KECCAK256 SWAP1 JUMPDEST DUP2 SLOAD DUP2 MSTORE SWAP1 PUSH1 0x1 ADD SWAP1 PUSH1 0x20 ADD DUP1 DUP4 GT PUSH2 0x1055 JUMPI DUP3 SWAP1 SUB PUSH1 0x1F AND DUP3 ADD SWAP2 JUMPDEST POP POP POP POP POP SWAP1 POP DUP4 JUMP JUMPDEST PUSH1 0x1 PUSH1 0x1 PUSH1 0xA0 SHL SUB DUP2 AND PUSH1 0x0 SWAP1 DUP2 MSTORE PUSH1 0x7 PUSH1 0x20 MSTORE PUSH1 0x40 DUP2 KECCAK256 PUSH1 0x6 SLOAD PUSH1 0x5 SLOAD DUP4 SWAP3 DUP4 SWAP3 DUP4 SWAP3 DUP4 SWAP3 PUSH1 0x60 SWAP3 SWAP1 SWAP2 TIMESTAMP GT DUP1 ISZERO PUSH2 0x10B7 JUMPI POP PUSH1 0x0 PUSH1 0x2 SLOAD GT JUMPDEST ISZERO PUSH2 0x111E JUMPI PUSH1 0x0 PUSH2 0x10D3 PUSH1 0x5 SLOAD TIMESTAMP PUSH2 0x14FE SWAP1 SWAP2 SWAP1 PUSH4 0xFFFFFFFF AND JUMP JUMPDEST SWAP1 POP PUSH1 0x0 PUSH2 0x10EC PUSH1 0x4 SLOAD DUP4 PUSH2 0x1513 SWAP1 SWAP2 SWAP1 PUSH4 0xFFFFFFFF AND JUMP JUMPDEST SWAP1 POP PUSH2 0x1119 PUSH2 0x1112 PUSH1 0x2 SLOAD PUSH2 0x8B2 PUSH8 0xDE0B6B3A7640000 DUP6 PUSH2 0x1513 SWAP1 SWAP2 SWAP1 PUSH4 0xFFFFFFFF AND JUMP JUMPDEST DUP5 SWAP1 PUSH2 0x152B JUMP JUMPDEST SWAP3 POP POP POP JUMPDEST DUP2 SLOAD PUSH1 0x0 SWAP1 ISZERO PUSH2 0x1156 JUMPI PUSH2 0x1153 DUP4 PUSH1 0x1 ADD SLOAD PUSH2 0x8B8 PUSH8 0xDE0B6B3A7640000 PUSH2 0x8B2 DUP7 DUP9 PUSH1 0x0 ADD SLOAD PUSH2 0x1513 SWAP1 SWAP2 SWAP1 PUSH4 0xFFFFFFFF AND JUMP JUMPDEST SWAP1 POP JUMPDEST DUP3 SLOAD PUSH1 0x3 DUP5 ADD SLOAD PUSH1 0x4 DUP6 ADD SLOAD PUSH1 0x5 DUP7 ADD SLOAD PUSH1 0x0 DUP4 DUP2 MSTORE PUSH1 0x8 PUSH1 0x20 MSTORE PUSH1 0x40 SWAP1 KECCAK256 PUSH1 0x2 ADD DUP1 SLOAD DUP7 SWAP5 SWAP4 SWAP3 PUSH1 0xFF AND SWAP2 SWAP1 DUP2 SWAP1 PUSH2 0x118E SWAP1 PUSH2 0x1712 JUMP JUMPDEST DUP1 PUSH1 0x1F ADD PUSH1 0x20 DUP1 SWAP2 DIV MUL PUSH1 0x20 ADD PUSH1 0x40 MLOAD SWAP1 DUP2 ADD PUSH1 0x40 MSTORE DUP1 SWAP3 SWAP2 SWAP1 DUP2 DUP2 MSTORE PUSH1 0x20 ADD DUP3 DUP1 SLOAD PUSH2 0x11BA SWAP1 PUSH2 0x1712 JUMP JUMPDEST DUP1 ISZERO PUSH2 0x1207 JUMPI DUP1 PUSH1 0x1F LT PUSH2 0x11DC JUMPI PUSH2 0x100 DUP1 DUP4 SLOAD DIV MUL DUP4 MSTORE SWAP2 PUSH1 0x20 ADD SWAP2 PUSH2 0x1207 JUMP JUMPDEST DUP3 ADD SWAP2 SWAP1 PUSH1 0x0 MSTORE PUSH1 0x20 PUSH1 0x0 KECCAK256 SWAP1 JUMPDEST DUP2 SLOAD DUP2 MSTORE SWAP1 PUSH1 0x1 ADD SWAP1 PUSH1 0x20 ADD DUP1 DUP4 GT PUSH2 0x11EA JUMPI DUP3 SWAP1 SUB PUSH1 0x1F AND DUP3 ADD SWAP2 JUMPDEST POP POP POP POP POP SWAP1 POP SWAP9 POP SWAP9 POP SWAP9 POP SWAP9 POP SWAP9 POP SWAP9 POP POP POP POP SWAP2 SWAP4 SWAP6 POP SWAP2 SWAP4 SWAP6 JUMP JUMPDEST PUSH2 0x122E PUSH2 0x1347 JUMP JUMPDEST PUSH1 0x9 SLOAD DUP3 LT PUSH2 0x127F JUMPI PUSH1 0x40 MLOAD PUSH3 0x461BCD PUSH1 0xE5 SHL DUP2 MSTORE PUSH1 0x20 PUSH1 0x4 DUP3 ADD MSTORE PUSH1 0x1D PUSH1 0x24 DUP3 ADD MSTORE PUSH32 0x5374616B696E67526577617264733A20696E76616C6964206C6576656C000000 PUSH1 0x44 DUP3 ADD MSTORE PUSH1 0x64 ADD PUSH2 0x48D JUMP JUMPDEST PUSH1 0x0 DUP3 DUP2 MSTORE PUSH1 0x8 PUSH1 0x20 SWAP1 DUP2 MSTORE PUSH1 0x40 SWAP2 DUP3 SWAP1 KECCAK256 PUSH1 0x1 ADD DUP4 SWAP1 SSTORE DUP2 MLOAD DUP5 DUP2 MSTORE SWAP1 DUP2 ADD DUP4 SWAP1 MSTORE PUSH32 0x787A1FCA55641CE34A438271930BBB9401DF20DB2B4F510D4F252227D85DF43D SWAP2 ADD PUSH1 0x40 MLOAD DUP1 SWAP2 SUB SWAP1 LOG1 POP POP JUMP JUMPDEST PUSH2 0x12D9 PUSH2 0x1347 JUMP JUMPDEST PUSH1 0x1 PUSH1 0x1 PUSH1 0xA0 SHL SUB DUP2 AND PUSH2 0x133E JUMPI PUSH1 0x40 MLOAD PUSH3 0x461BCD PUSH1 0xE5 SHL DUP2 MSTORE PUSH1 0x20 PUSH1 0x4 DUP3 ADD MSTORE PUSH1 0x26 PUSH1 0x24 DUP3 ADD MSTORE PUSH32 0x4F776E61626C653A206E6577206F776E657220697320746865207A65726F2061 PUSH1 0x44 DUP3 ADD MSTORE PUSH6 0x646472657373 PUSH1 0xD0 SHL PUSH1 0x64 DUP3 ADD MSTORE PUSH1 0x84 ADD PUSH2 0x48D JUMP JUMPDEST PUSH2 0x85D DUP2 PUSH2 0x1579 JUMP JUMPDEST PUSH1 0x0 SLOAD PUSH1 0x1 PUSH1 0x1 PUSH1 0xA0 SHL SUB AND CALLER EQ PUSH2 0xA3A JUMPI PUSH1 0x40 MLOAD PUSH3 0x461BCD PUSH1 0xE5 SHL DUP2 MSTORE PUSH1 0x20 PUSH1 0x4 DUP3 ADD DUP2 SWAP1 MSTORE PUSH1 0x24 DUP3 ADD MSTORE PUSH32 0x4F776E61626C653A2063616C6C6572206973206E6F7420746865206F776E6572 PUSH1 0x44 DUP3 ADD MSTORE PUSH1 0x64 ADD PUSH2 0x48D JUMP JUMPDEST PUSH1 0x2 PUSH1 0x1 SLOAD SUB PUSH2 0x13F3 JUMPI PUSH1 0x40 MLOAD PUSH3 0x461BCD PUSH1 0xE5 SHL DUP2 MSTORE PUSH1 0x20 PUSH1 0x4 DUP3 ADD MSTORE PUSH1 0x1F PUSH1 0x24 DUP3 ADD MSTORE PUSH32 0x5265656E7472616E637947756172643A207265656E7472616E742063616C6C00 PUSH1 0x44 DUP3 ADD MSTORE PUSH1 0x64 ADD PUSH2 0x48D JUMP JUMPDEST PUSH1 0x2 PUSH1 0x1 SSTORE JUMP JUMPDEST PUSH1 0x5 SLOAD TIMESTAMP GT PUSH2 0x1405 JUMPI JUMP JUMPDEST PUSH1 0x2 SLOAD ISZERO PUSH2 0x1472 JUMPI PUSH1 0x0 PUSH2 0x1424 PUSH1 0x5 SLOAD TIMESTAMP PUSH2 0x14FE SWAP1 SWAP2 SWAP1 PUSH4 0xFFFFFFFF AND JUMP JUMPDEST SWAP1 POP PUSH1 0x0 PUSH2 0x143D PUSH1 0x4 SLOAD DUP4 PUSH2 0x1513 SWAP1 SWAP2 SWAP1 PUSH4 0xFFFFFFFF AND JUMP JUMPDEST SWAP1 POP PUSH2 0x146C PUSH2 0x1463 PUSH1 0x2 SLOAD PUSH2 0x8B2 PUSH8 0xDE0B6B3A7640000 DUP6 PUSH2 0x1513 SWAP1 SWAP2 SWAP1 PUSH4 0xFFFFFFFF AND JUMP JUMPDEST PUSH1 0x6 SLOAD SWAP1 PUSH2 0x152B JUMP JUMPDEST PUSH1 0x6 SSTORE POP POP JUMPDEST TIMESTAMP PUSH1 0x5 SSTORE JUMP JUMPDEST PUSH1 0x1 PUSH1 0x1 PUSH1 0xA0 SHL SUB DUP2 AND PUSH1 0x0 SWAP1 DUP2 MSTORE PUSH1 0x7 PUSH1 0x20 MSTORE PUSH1 0x40 SWAP1 KECCAK256 DUP1 SLOAD ISZERO PUSH2 0x14F4 JUMPI PUSH1 0x0 PUSH2 0x14C6 DUP3 PUSH1 0x1 ADD SLOAD PUSH2 0x8B8 PUSH8 0xDE0B6B3A7640000 PUSH2 0x8B2 PUSH1 0x6 SLOAD DUP8 PUSH1 0x0 ADD SLOAD PUSH2 0x1513 SWAP1 SWAP2 SWAP1 PUSH4 0xFFFFFFFF AND JUMP JUMPDEST SWAP1 POP PUSH2 0x14ED PUSH8 0xDE0B6B3A7640000 PUSH2 0x8B2 PUSH1 0x6 SLOAD DUP6 PUSH1 0x0 ADD SLOAD PUSH2 0x1513 SWAP1 SWAP2 SWAP1 PUSH4 0xFFFFFFFF AND JUMP JUMPDEST PUSH1 0x1 DUP4 ADD SSTORE POP JUMPDEST TIMESTAMP PUSH1 0x2 SWAP1 SWAP2 ADD SSTORE POP JUMP JUMPDEST PUSH1 0x0 PUSH2 0x150A DUP3 DUP5 PUSH2 0x17DB JUMP JUMPDEST SWAP1 POP JUMPDEST SWAP3 SWAP2 POP POP JUMP JUMPDEST PUSH1 0x0 PUSH2 0x150A DUP3 DUP5 PUSH2 0x17EE JUMP JUMPDEST PUSH1 0x0 PUSH2 0x150A DUP3 DUP5 PUSH2 0x1805 JUMP JUMPDEST PUSH1 0x0 PUSH2 0x150A DUP3 DUP5 PUSH2 0x1827 JUMP JUMPDEST PUSH1 0x0 DUP1 PUSH1 0x1 PUSH1 0x9 SLOAD PUSH2 0x1549 SWAP2 SWAP1 PUSH2 0x17DB JUMP JUMPDEST SWAP1 POP JUMPDEST PUSH1 0x0 DUP2 DUP2 MSTORE PUSH1 0x8 PUSH1 0x20 MSTORE PUSH1 0x40 SWAP1 KECCAK256 SLOAD DUP4 LT PUSH2 0x1567 JUMPI SWAP3 SWAP2 POP POP JUMP JUMPDEST DUP1 PUSH2 0x1571 DUP2 PUSH2 0x183A JUMP JUMPDEST SWAP2 POP POP PUSH2 0x154C JUMP JUMPDEST PUSH1 0x0 DUP1 SLOAD PUSH1 0x1 PUSH1 0x1 PUSH1 0xA0 SHL SUB DUP4 DUP2 AND PUSH1 0x1 PUSH1 0x1 PUSH1 0xA0 SHL SUB NOT DUP4 AND DUP2 OR DUP5 SSTORE PUSH1 0x40 MLOAD SWAP2 SWAP1 SWAP3 AND SWAP3 DUP4 SWAP2 PUSH32 0x8BE0079C531659141344CD1FD0A4F28419497F9722A3DAAFE3B4186F6B6457E0 SWAP2 SWAP1 LOG3 POP POP JUMP JUMPDEST PUSH1 0x0 PUSH1 0x20 DUP3 DUP5 SUB SLT ISZERO PUSH2 0x15DB JUMPI PUSH1 0x0 DUP1 REVERT JUMPDEST POP CALLDATALOAD SWAP2 SWAP1 POP JUMP JUMPDEST PUSH1 0x0 DUP2 MLOAD DUP1 DUP5 MSTORE PUSH1 0x0 JUMPDEST DUP2 DUP2 LT ISZERO PUSH2 0x1608 JUMPI PUSH1 0x20 DUP2 DUP6 ADD DUP2 ADD MLOAD DUP7 DUP4 ADD DUP3 ADD MSTORE ADD PUSH2 0x15EC JUMP JUMPDEST POP PUSH1 0x0 PUSH1 0x20 DUP3 DUP7 ADD ADD MSTORE PUSH1 0x20 PUSH1 0x1F NOT PUSH1 0x1F DUP4 ADD AND DUP6 ADD ADD SWAP2 POP POP SWAP3 SWAP2 POP POP JUMP JUMPDEST DUP4 DUP2 MSTORE DUP3 PUSH1 0x20 DUP3 ADD MSTORE PUSH1 0x60 PUSH1 0x40 DUP3 ADD MSTORE PUSH1 0x0 PUSH2 0x1647 PUSH1 0x60 DUP4 ADD DUP5 PUSH2 0x15E2 JUMP JUMPDEST SWAP6 SWAP5 POP POP POP POP POP JUMP JUMPDEST DUP1 CALLDATALOAD PUSH1 0x1 PUSH1 0x1 PUSH1 0xA0 SHL SUB DUP2 AND DUP2 EQ PUSH2 0x1667 JUMPI PUSH1 0x0 DUP1 REVERT JUMPDEST SWAP2 SWAP1 POP JUMP JUMPDEST PUSH1 0x0 DUP1 PUSH1 0x40 DUP4 DUP6 SUB SLT ISZERO PUSH2 0x167F JUMPI PUSH1 0x0 DUP1 REVERT JUMPDEST PUSH2 0x1688 DUP4 PUSH2 0x1650 JUMP JUMPDEST SWAP5 PUSH1 0x20 SWAP4 SWAP1 SWAP4 ADD CALLDATALOAD SWAP4 POP POP POP JUMP JUMPDEST PUSH1 0x0 PUSH1 0x20 DUP3 DUP5 SUB SLT ISZERO PUSH2 0x16A8 JUMPI PUSH1 0x0 DUP1 REVERT JUMPDEST PUSH2 0x150A DUP3 PUSH2 0x1650 JUMP JUMPDEST DUP7 DUP2 MSTORE DUP6 PUSH1 0x20 DUP3 ADD MSTORE DUP5 PUSH1 0x40 DUP3 ADD MSTORE DUP4 PUSH1 0x60 DUP3 ADD MSTORE DUP3 ISZERO ISZERO PUSH1 0x80 DUP3 ADD MSTORE PUSH1 0xC0 PUSH1 0xA0 DUP3 ADD MSTORE PUSH1 0x0 PUSH2 0x16E4 PUSH1 0xC0 DUP4 ADD DUP5 PUSH2 0x15E2 JUMP JUMPDEST SWAP9 SWAP8 POP POP POP POP POP POP POP POP JUMP JUMPDEST PUSH1 0x0 DUP1 PUSH1 0x40 DUP4 DUP6 SUB SLT ISZERO PUSH2 0x1703 JUMPI PUSH1 0x0 DUP1 REVERT JUMPDEST POP POP DUP1 CALLDATALOAD SWAP3 PUSH1 0x20 SWAP1 SWAP2 ADD CALLDATALOAD SWAP2 POP JUMP JUMPDEST PUSH1 0x1 DUP2 DUP2 SHR SWAP1 DUP3 AND DUP1 PUSH2 0x1726 JUMPI PUSH1 0x7F DUP3 AND SWAP2 POP JUMPDEST PUSH1 0x20 DUP3 LT DUP2 SUB PUSH2 0x1746 JUMPI PUSH4 0x4E487B71 PUSH1 0xE0 SHL PUSH1 0x0 MSTORE PUSH1 0x22 PUSH1 0x4 MSTORE PUSH1 0x24 PUSH1 0x0 REVERT JUMPDEST POP SWAP2 SWAP1 POP JUMP JUMPDEST PUSH1 0x0 PUSH1 0x20 DUP3 DUP5 SUB SLT ISZERO PUSH2 0x175E JUMPI PUSH1 0x0 DUP1 REVERT JUMPDEST DUP2 MLOAD DUP1 ISZERO ISZERO DUP2 EQ PUSH2 0x176E JUMPI PUSH1 0x0 DUP1 REVERT JUMPDEST SWAP4 SWAP3 POP POP POP JUMP JUMPDEST PUSH1 0x20 DUP1 DUP3 MSTORE PUSH1 0x1F SWAP1 DUP3 ADD MSTORE PUSH32 0x5374616B696E67526577617264733A207472616E73666572206661696C656400 PUSH1 0x40 DUP3 ADD MSTORE PUSH1 0x60 ADD SWAP1 JUMP JUMPDEST PUSH1 0x0 PUSH1 0x20 DUP3 DUP5 SUB SLT ISZERO PUSH2 0x17BE JUMPI PUSH1 0x0 DUP1 REVERT JUMPDEST POP MLOAD SWAP2 SWAP1 POP JUMP JUMPDEST PUSH4 0x4E487B71 PUSH1 0xE0 SHL PUSH1 0x0 MSTORE PUSH1 0x11 PUSH1 0x4 MSTORE PUSH1 0x24 PUSH1 0x0 REVERT JUMPDEST DUP2 DUP2 SUB DUP2 DUP2 GT ISZERO PUSH2 0x150D JUMPI PUSH2 0x150D PUSH2 0x17C5 JUMP JUMPDEST DUP1 DUP3 MUL DUP2 ISZERO DUP3 DUP3 DIV DUP5 EQ OR PUSH2 0x150D JUMPI PUSH2 0x150D PUSH2 0x17C5 JUMP JUMPDEST PUSH1 0x0 DUP3 PUSH2 0x1822 JUMPI PUSH4 0x4E487B71 PUSH1 0xE0 SHL PUSH1 0x0 MSTORE PUSH1 0x12 PUSH1 0x4 MSTORE PUSH1 0x24 PUSH1 0x0 REVERT JUMPDEST POP DIV SWAP1 JUMP JUMPDEST DUP1 DUP3 ADD DUP1 DUP3 GT ISZERO PUSH2 0x150D JUMPI PUSH2 0x150D PUSH2 0x17C5 JUMP JUMPDEST PUSH1 0x0 DUP2 PUSH2 0x1849 JUMPI PUSH2 0x1849 PUSH2 0x17C5 JUMP JUMPDEST POP PUSH1 0x0 NOT ADD SWAP1 JUMP INVALID LOG2 PUSH5 0x6970667358 0x22 SLT KECCAK256 CALLVALUE SWAP1 POP 0xE5 0xFB 0xE3 0xC2 PUSH6 0xE7472366BBEF 0xBD DUP3 NOT 0x4C DUP3 0x2E 0xC3 0xD8 0xD0 0xC8 PUSH6 0x1FA32DF60B5E 0xD3 PUSH5 0x736F6C6343 STOP ADDMOD SGT STOP CALLER "},"methodIdentifiers":{"FAN_TOKEN_ADDRESS()":"03b93940","accRewardPerShare()":"939d6237","addRewardTokens(uint256)":"58eb9700","claimRewards()":"372500ab","completeMultipleQuests(address,uint256)":"609e276e","completeQuest(address)":"77b37fe7","fanToken()":"75daa3de","getLevelInfo(uint256)":"030101db","getTotalInfo()":"285109d1","getUserAPY(address)":"3660106e","getUserStake(address)":"bbadc93a","lastUpdateTime()":"c8f33c91","levels(uint256)":"b2596a67","owner()":"8da5cb5b","renounceOwnership()":"715018a6","rewardPerSecond()":"8f10369a","setRewardPerSecond(uint256)":"66da5815","stake(uint256)":"a694fc3a","totalLevels()":"1f578031","totalRewardsDistributed()":"ee172546","totalStaked()":"817b1cd2","transferOwnership(address)":"f2fde38b","unstake(uint256)":"2e17de78","updateLevelAPY(uint256,uint256)":"e8c09419","userStakes(address)":"8da7ad23","withdrawTokens(address,uint256)":"06b091f9"}}}}}