{"contracts/LeaderboardRewards.sol":{"LeaderboardRewards":{"abi":[{"inputs":[],"stateMutability":"nonpayable","type":"constructor"},{"anonymous":false,"inputs":[{"indexed":true,"internalType":"address","name":"previousOwner","type":"address"},{"indexed":true,"internalType":"address","name":"newOwner","type":"address"}],"name":"OwnershipTransferred","type":"event"},{"anonymous":false,"inputs":[{"indexed":false,"internalType":"uint256","name":"newAmount","type":"uint256"}],"name":"RewardAmountUpdated","type":"event"},{"anonymous":false,"inputs":[{"indexed":false,"internalType":"address","name":"winner","type":"address"},{"indexed":false,"internalType":"uint256","name":"amount","type":"uint256"}],"name":"RewardClaimed","type":"event"},{"anonymous":false,"inputs":[{"indexed":false,"internalType":"address","name":"to","type":"address"},{"indexed":false,"internalType":"uint256","name":"amount","type":"uint256"}],"name":"TokensWithdrawn","type":"event"},{"anonymous":false,"inputs":[{"indexed":false,"internalType":"address[]","name":"winners","type":"address[]"}],"name":"WinnersSet","type":"event"},{"inputs":[],"name":"FAN_TOKEN_ADDRESS","outputs":[{"internalType":"address","name":"","type":"address"}],"stateMutability":"view","type":"function"},{"inputs":[],"name":"MAX_WINNERS","outputs":[{"internalType":"uint256","name":"","type":"uint256"}],"stateMutability":"view","type":"function"},{"inputs":[],"name":"claimReward","outputs":[],"stateMutability":"nonpayable","type":"function"},{"inputs":[],"name":"fanToken","outputs":[{"internalType":"contract IERC20","name":"","type":"address"}],"stateMutability":"view","type":"function"},{"inputs":[{"internalType":"address","name":"_winner","type":"address"}],"name":"getClaimStatus","outputs":[{"internalType":"bool","name":"","type":"bool"}],"stateMutability":"view","type":"function"},{"inputs":[],"name":"getContractBalance","outputs":[{"internalType":"uint256","name":"","type":"uint256"}],"stateMutability":"view","type":"function"},{"inputs":[],"name":"getTotalRewardAmount","outputs":[{"internalType":"uint256","name":"","type":"uint256"}],"stateMutability":"view","type":"function"},{"inputs":[],"name":"getUnclaimedRewards","outputs":[{"internalType":"uint256","name":"","type":"uint256"}],"stateMutability":"view","type":"function"},{"inputs":[],"name":"getWinnerCount","outputs":[{"internalType":"uint256","name":"","type":"uint256"}],"stateMutability":"view","type":"function"},{"inputs":[],"name":"getWinners","outputs":[{"internalType":"address[]","name":"","type":"address[]"}],"stateMutability":"view","type":"function"},{"inputs":[{"internalType":"address","name":"","type":"address"}],"name":"hasClaimed","outputs":[{"internalType":"bool","name":"","type":"bool"}],"stateMutability":"view","type":"function"},{"inputs":[{"internalType":"address","name":"_address","type":"address"}],"name":"isWinner","outputs":[{"internalType":"bool","name":"","type":"bool"}],"stateMutability":"view","type":"function"},{"inputs":[],"name":"owner","outputs":[{"internalType":"address","name":"","type":"address"}],"stateMutability":"view","type":"function"},{"inputs":[],"name":"renounceOwnership","outputs":[],"stateMutability":"nonpayable","type":"function"},{"inputs":[],"name":"rewardPerWinner","outputs":[{"internalType":"uint256","name":"","type":"uint256"}],"stateMutability":"view","type":"function"},{"inputs":[{"internalType":"uint256","name":"_rewardAmount","type":"uint256"}],"name":"setRewardAmount","outputs":[],"stateMutability":"nonpayable","type":"function"},{"inputs":[{"internalType":"address[]","name":"_winners","type":"address[]"}],"name":"setWinners","outputs":[],"stateMutability":"nonpayable","type":"function"},{"inputs":[{"internalType":"address","name":"newOwner","type":"address"}],"name":"transferOwnership","outputs":[],"stateMutability":"nonpayable","type":"function"},{"inputs":[{"internalType":"uint256","name":"","type":"uint256"}],"name":"winners","outputs":[{"internalType":"address","name":"","type":"address"}],"stateMutability":"view","type":"function"},{"inputs":[{"internalType":"address","name":"_to","type":"address"},{"internalType":"uint256","name":"_amount","type":"uint256"}],"name":"withdrawTokens","outputs":[],"stateMutability":"nonpayable","type":"function"}],"evm":{"bytecode":{"linkReferences":{},"object":"60a060405234801561001057600080fd5b5061001a3361003b565b60018055731f0a316ba43224d87d7024c312ff52e1c8a2ced960805261008b565b600080546001600160a01b038381166001600160a01b0319831681178455604051919092169283917f8be0079c531659141344cd1fd0a4f28419497f9722a3daafe3b4186f6b6457e09190a35050565b6080516112a56100c9600039600081816101ff015281816103cb015281816104c7015281816108ba01528181610bec0152610d0501526112a56000f3fe608060405234801561001057600080fd5b506004361061012c5760003560e01c80638da5cb5b116100ad578063a8a65a7811610071578063a8a65a7814610269578063b88a802f1461027c578063c9760f7114610284578063df15c37e146102b0578063f2fde38b146102c557600080fd5b80638da5cb5b146102215780639abed90d146102325780639d9ca28d1461023b578063a2fb11751461024e578063a46c36371461026157600080fd5b8063445e6b39116100f4578063445e6b39146101a45780636f9fb98a146101b7578063715018a6146101bf57806373b2e80e146101c757806375daa3de146101fa57600080fd5b806303b939401461013157806306b091f91461016957806310377be31461017e578063162302571461019457806329a62a761461019c575b600080fd5b61014c731f0a316ba43224d87d7024c312ff52e1c8a2ced981565b6040516001600160a01b0390911681526020015b60405180910390f35b61017c610177366004611009565b6102d8565b005b610186610597565b604051908152602001610160565b6101866105ae565b610186600a81565b61017c6101b2366004611033565b610643565b6101866108a2565b61017c61092d565b6101ea6101d53660046110a8565b60046020526000908152604090205460ff1681565b6040519015158152602001610160565b61014c7f000000000000000000000000000000000000000000000000000000000000000081565b6000546001600160a01b031661014c565b61018660025481565b6101ea6102493660046110a8565b610941565b61014c61025c3660046110ca565b6109aa565b600354610186565b61017c6102773660046110ca565b6109d4565b61017c610a8d565b6101ea6102923660046110a8565b6001600160a01b031660009081526004602052604090205460ff1690565b6102b8610ddd565b60405161016091906110e3565b61017c6102d33660046110a8565b610e3f565b6102e0610eb8565b6001600160a01b0382166103495760405162461bcd60e51b815260206004820152602560248201527f4c6561646572626f617264526577617264733a20696e76616c696420726563696044820152641c1a595b9d60da1b60648201526084015b60405180910390fd5b600081116103b35760405162461bcd60e51b815260206004820152603160248201527f4c6561646572626f617264526577617264733a20616d6f756e74206d75737420604482015270062652067726561746572207468616e203607c1b6064820152608401610340565b6040516370a0823160e01b81523060048201526000907f00000000000000000000000000000000000000000000000000000000000000006001600160a01b0316906370a0823190602401602060405180830381865afa15801561041a573d6000803e3d6000fd5b505050506040513d601f19601f8201168201806040525081019061043e9190611130565b9050818110156104a15760405162461bcd60e51b815260206004820152602860248201527f4c6561646572626f617264526577617264733a20696e73756666696369656e746044820152672062616c616e636560c01b6064820152608401610340565b60405163a9059cbb60e01b81526001600160a01b038481166004830152602482018490527f0000000000000000000000000000000000000000000000000000000000000000169063a9059cbb906044016020604051808303816000875af1158015610510573d6000803e3d6000fd5b505050506040513d601f19601f820116820180604052508101906105349190611149565b6105505760405162461bcd60e51b81526004016103409061116b565b604080516001600160a01b0385168152602081018490527f6352c5382c4a4578e712449ca65e83cdb392d045dfcf1cad9615189db2da244b910160405180910390a1505050565b6002546003546000916105a9916111c4565b905090565b600080805b6003548110156106215760046000600383815481106105d4576105d46111e1565b60009182526020808320909101546001600160a01b0316835282019290925260400190205460ff161561060f578161060b816111f7565b9250505b80610619816111f7565b9150506105b3565b50600254600354610633908390611210565b61063d91906111c4565b91505090565b61064b610eb8565b600a8111156106a85760405162461bcd60e51b8152602060048201526024808201527f4c6561646572626f617264526577617264733a20746f6f206d616e792077696e6044820152636e65727360e01b6064820152608401610340565b806107055760405162461bcd60e51b815260206004820152602760248201527f4c6561646572626f617264526577617264733a206e6f2077696e6e65727320706044820152661c9bdd9a59195960ca1b6064820152608401610340565b61071160036000610fbb565b60005b81811015610864576000838383818110610730576107306111e1565b905060200201602081019061074591906110a8565b6001600160a01b0316036107a75760405162461bcd60e51b815260206004820152602360248201527f4c6561646572626f617264526577617264733a20696e76616c6964206164647260448201526265737360e81b6064820152608401610340565b60038383838181106107bb576107bb6111e1565b90506020020160208101906107d091906110a8565b81546001810183556000928352602083200180546001600160a01b0319166001600160a01b0392909216919091179055600481858585818110610815576108156111e1565b905060200201602081019061082a91906110a8565b6001600160a01b031681526020810191909152604001600020805460ff19169115159190911790558061085c816111f7565b915050610714565b507f8451dabc49a0b82cffb0a79a6771fe2718264aae54a4eff4d4463748813ec56f8282604051610896929190611223565b60405180910390a15050565b6040516370a0823160e01b81523060048201526000907f00000000000000000000000000000000000000000000000000000000000000006001600160a01b0316906370a0823190602401602060405180830381865afa158015610909573d6000803e3d6000fd5b505050506040513d601f19601f820116820180604052508101906105a99190611130565b610935610eb8565b61093f6000610f12565b565b6000805b6003548110156109a157826001600160a01b03166003828154811061096c5761096c6111e1565b6000918252602090912001546001600160a01b03160361098f5750600192915050565b80610999816111f7565b915050610945565b50600092915050565b600381815481106109ba57600080fd5b6000918252602090912001546001600160a01b0316905081565b6109dc610eb8565b60008111610a525760405162461bcd60e51b815260206004820152603860248201527f4c6561646572626f617264526577617264733a2072657761726420616d6f756e60448201527f74206d7573742062652067726561746572207468616e203000000000000000006064820152608401610340565b60028190556040518181527f9639dea65e74b72b1b86ccf3e4f9b6d23b88d2aad2f103d0b3afe394e67edade9060200160405180910390a150565b610a9633610941565b610af55760405162461bcd60e51b815260206004820152602a60248201527f4c6561646572626f617264526577617264733a2063616c6c6572206973206e6f6044820152693a1030903bb4b73732b960b11b6064820152608401610340565b610afd610f62565b3360009081526004602052604090205460ff1615610b705760405162461bcd60e51b815260206004820152602a60248201527f4c6561646572626f617264526577617264733a2072657761726420616c726561604482015269191e4818db185a5b595960b21b6064820152608401610340565b600060025411610bd45760405162461bcd60e51b815260206004820152602960248201527f4c6561646572626f617264526577617264733a2072657761726420616d6f756e6044820152681d081b9bdd081cd95d60ba1b6064820152608401610340565b6040516370a0823160e01b81523060048201526000907f00000000000000000000000000000000000000000000000000000000000000006001600160a01b0316906370a0823190602401602060405180830381865afa158015610c3b573d6000803e3d6000fd5b505050506040513d601f19601f82011682018060405250810190610c5f9190611130565b9050600254811015610cca5760405162461bcd60e51b815260206004820152602e60248201527f4c6561646572626f617264526577617264733a20696e73756666696369656e7460448201526d20746f6b656e2062616c616e636560901b6064820152608401610340565b33600081815260046020819052604091829020805460ff19166001179055600254915163a9059cbb60e01b81529081019290925260248201527f00000000000000000000000000000000000000000000000000000000000000006001600160a01b03169063a9059cbb906044016020604051808303816000875af1158015610d56573d6000803e3d6000fd5b505050506040513d601f19601f82011682018060405250810190610d7a9190611149565b610d965760405162461bcd60e51b81526004016103409061116b565b6002546040805133815260208101929092527f106f923f993c2149d49b4255ff723acafa1f2d94393f561d3eda32ae348f7241910160405180910390a15061093f60018055565b60606003805480602002602001604051908101604052809291908181526020018280548015610e3557602002820191906000526020600020905b81546001600160a01b03168152600190910190602001808311610e17575b5050505050905090565b610e47610eb8565b6001600160a01b038116610eac5760405162461bcd60e51b815260206004820152602660248201527f4f776e61626c653a206e6577206f776e657220697320746865207a65726f206160448201526564647265737360d01b6064820152608401610340565b610eb581610f12565b50565b6000546001600160a01b0316331461093f5760405162461bcd60e51b815260206004820181905260248201527f4f776e61626c653a2063616c6c6572206973206e6f7420746865206f776e65726044820152606401610340565b600080546001600160a01b038381166001600160a01b0319831681178455604051919092169283917f8be0079c531659141344cd1fd0a4f28419497f9722a3daafe3b4186f6b6457e09190a35050565b600260015403610fb45760405162461bcd60e51b815260206004820152601f60248201527f5265656e7472616e637947756172643a207265656e7472616e742063616c6c006044820152606401610340565b6002600155565b5080546000825590600052602060002090810190610eb591905b80821115610fe95760008155600101610fd5565b5090565b80356001600160a01b038116811461100457600080fd5b919050565b6000806040838503121561101c57600080fd5b61102583610fed565b946020939093013593505050565b6000806020838503121561104657600080fd5b823567ffffffffffffffff8082111561105e57600080fd5b818501915085601f83011261107257600080fd5b81358181111561108157600080fd5b8660208260051b850101111561109657600080fd5b60209290920196919550909350505050565b6000602082840312156110ba57600080fd5b6110c382610fed565b9392505050565b6000602082840312156110dc57600080fd5b5035919050565b6020808252825182820181905260009190848201906040850190845b818110156111245783516001600160a01b0316835292840192918401916001016110ff565b50909695505050505050565b60006020828403121561114257600080fd5b5051919050565b60006020828403121561115b57600080fd5b815180151581146110c357600080fd5b60208082526023908201527f4c6561646572626f617264526577617264733a207472616e73666572206661696040820152621b195960ea1b606082015260800190565b634e487b7160e01b600052601160045260246000fd5b80820281158282048414176111db576111db6111ae565b92915050565b634e487b7160e01b600052603260045260246000fd5b600060018201611209576112096111ae565b5060010190565b818103818111156111db576111db6111ae565b60208082528181018390526000908460408401835b86811015611264576001600160a01b0361125184610fed565b1682529183019190830190600101611238565b50969550505050505056fea2646970667358221220366f577e816ea38b589cf51c7c7186c527e4337dc77918eb654da749cd1e7ff764736f6c63430008130033","opcodes":"PUSH1 0xA0 PUSH1 0x40 MSTORE CALLVALUE DUP1 ISZERO PUSH2 0x10 JUMPI PUSH1 0x0 DUP1 REVERT JUMPDEST POP PUSH2 0x1A CALLER PUSH2 0x3B JUMP JUMPDEST PUSH1 0x1 DUP1 SSTORE PUSH20 0x1F0A316BA43224D87D7024C312FF52E1C8A2CED9 PUSH1 0x80 MSTORE PUSH2 0x8B JUMP JUMPDEST PUSH1 0x0 DUP1 SLOAD PUSH1 0x1 PUSH1 0x1 PUSH1 0xA0 SHL SUB DUP4 DUP2 AND PUSH1 0x1 PUSH1 0x1 PUSH1 0xA0 SHL SUB NOT DUP4 AND DUP2 OR DUP5 SSTORE PUSH1 0x40 MLOAD SWAP2 SWAP1 SWAP3 AND SWAP3 DUP4 SWAP2 PUSH32 0x8BE0079C531659141344CD1FD0A4F28419497F9722A3DAAFE3B4186F6B6457E0 SWAP2 SWAP1 LOG3 POP POP JUMP JUMPDEST PUSH1 0x80 MLOAD PUSH2 0x12A5 PUSH2 0xC9 PUSH1 0x0 CODECOPY PUSH1 0x0 DUP2 DUP2 PUSH2 0x1FF ADD MSTORE DUP2 DUP2 PUSH2 0x3CB ADD MSTORE DUP2 DUP2 PUSH2 0x4C7 ADD MSTORE DUP2 DUP2 PUSH2 0x8BA ADD MSTORE DUP2 DUP2 PUSH2 0xBEC ADD MSTORE PUSH2 0xD05 ADD MSTORE PUSH2 0x12A5 PUSH1 0x0 RETURN INVALID PUSH1 0x80 PUSH1 0x40 MSTORE CALLVALUE DUP1 ISZERO PUSH2 0x10 JUMPI PUSH1 0x0 DUP1 REVERT JUMPDEST POP PUSH1 0x4 CALLDATASIZE LT PUSH2 0x12C JUMPI PUSH1 0x0 CALLDATALOAD PUSH1 0xE0 SHR DUP1 PUSH4 0x8DA5CB5B GT PUSH2 0xAD JUMPI DUP1 PUSH4 0xA8A65A78 GT PUSH2 0x71 JUMPI DUP1 PUSH4 0xA8A65A78 EQ PUSH2 0x269 JUMPI DUP1 PUSH4 0xB88A802F EQ PUSH2 0x27C JUMPI DUP1 PUSH4 0xC9760F71 EQ PUSH2 0x284 JUMPI DUP1 PUSH4 0xDF15C37E EQ PUSH2 0x2B0 JUMPI DUP1 PUSH4 0xF2FDE38B EQ PUSH2 0x2C5 JUMPI PUSH1 0x0 DUP1 REVERT JUMPDEST DUP1 PUSH4 0x8DA5CB5B EQ PUSH2 0x221 JUMPI DUP1 PUSH4 0x9ABED90D EQ PUSH2 0x232 JUMPI DUP1 PUSH4 0x9D9CA28D EQ PUSH2 0x23B JUMPI DUP1 PUSH4 0xA2FB1175 EQ PUSH2 0x24E JUMPI DUP1 PUSH4 0xA46C3637 EQ PUSH2 0x261 JUMPI PUSH1 0x0 DUP1 REVERT JUMPDEST DUP1 PUSH4 0x445E6B39 GT PUSH2 0xF4 JUMPI DUP1 PUSH4 0x445E6B39 EQ PUSH2 0x1A4 JUMPI DUP1 PUSH4 0x6F9FB98A EQ PUSH2 0x1B7 JUMPI DUP1 PUSH4 0x715018A6 EQ PUSH2 0x1BF JUMPI DUP1 PUSH4 0x73B2E80E EQ PUSH2 0x1C7 JUMPI DUP1 PUSH4 0x75DAA3DE EQ PUSH2 0x1FA JUMPI PUSH1 0x0 DUP1 REVERT JUMPDEST DUP1 PUSH4 0x3B93940 EQ PUSH2 0x131 JUMPI DUP1 PUSH4 0x6B091F9 EQ PUSH2 0x169 JUMPI DUP1 PUSH4 0x10377BE3 EQ PUSH2 0x17E JUMPI DUP1 PUSH4 0x16230257 EQ PUSH2 0x194 JUMPI DUP1 PUSH4 0x29A62A76 EQ PUSH2 0x19C JUMPI JUMPDEST PUSH1 0x0 DUP1 REVERT JUMPDEST PUSH2 0x14C PUSH20 0x1F0A316BA43224D87D7024C312FF52E1C8A2CED9 DUP2 JUMP JUMPDEST PUSH1 0x40 MLOAD PUSH1 0x1 PUSH1 0x1 PUSH1 0xA0 SHL SUB SWAP1 SWAP2 AND DUP2 MSTORE PUSH1 0x20 ADD JUMPDEST PUSH1 0x40 MLOAD DUP1 SWAP2 SUB SWAP1 RETURN JUMPDEST PUSH2 0x17C PUSH2 0x177 CALLDATASIZE PUSH1 0x4 PUSH2 0x1009 JUMP JUMPDEST PUSH2 0x2D8 JUMP JUMPDEST STOP JUMPDEST PUSH2 0x186 PUSH2 0x597 JUMP JUMPDEST PUSH1 0x40 MLOAD SWAP1 DUP2 MSTORE PUSH1 0x20 ADD PUSH2 0x160 JUMP JUMPDEST PUSH2 0x186 PUSH2 0x5AE JUMP JUMPDEST PUSH2 0x186 PUSH1 0xA DUP2 JUMP JUMPDEST PUSH2 0x17C PUSH2 0x1B2 CALLDATASIZE PUSH1 0x4 PUSH2 0x1033 JUMP JUMPDEST PUSH2 0x643 JUMP JUMPDEST PUSH2 0x186 PUSH2 0x8A2 JUMP JUMPDEST PUSH2 0x17C PUSH2 0x92D JUMP JUMPDEST PUSH2 0x1EA PUSH2 0x1D5 CALLDATASIZE PUSH1 0x4 PUSH2 0x10A8 JUMP JUMPDEST PUSH1 0x4 PUSH1 0x20 MSTORE PUSH1 0x0 SWAP1 DUP2 MSTORE PUSH1 0x40 SWAP1 KECCAK256 SLOAD PUSH1 0xFF AND DUP2 JUMP JUMPDEST PUSH1 0x40 MLOAD SWAP1 ISZERO ISZERO DUP2 MSTORE PUSH1 0x20 ADD PUSH2 0x160 JUMP JUMPDEST PUSH2 0x14C PUSH32 0x0 DUP2 JUMP JUMPDEST PUSH1 0x0 SLOAD PUSH1 0x1 PUSH1 0x1 PUSH1 0xA0 SHL SUB AND PUSH2 0x14C JUMP JUMPDEST PUSH2 0x186 PUSH1 0x2 SLOAD DUP2 JUMP JUMPDEST PUSH2 0x1EA PUSH2 0x249 CALLDATASIZE PUSH1 0x4 PUSH2 0x10A8 JUMP JUMPDEST PUSH2 0x941 JUMP JUMPDEST PUSH2 0x14C PUSH2 0x25C CALLDATASIZE PUSH1 0x4 PUSH2 0x10CA JUMP JUMPDEST PUSH2 0x9AA JUMP JUMPDEST PUSH1 0x3 SLOAD PUSH2 0x186 JUMP JUMPDEST PUSH2 0x17C PUSH2 0x277 CALLDATASIZE PUSH1 0x4 PUSH2 0x10CA JUMP JUMPDEST PUSH2 0x9D4 JUMP JUMPDEST PUSH2 0x17C PUSH2 0xA8D JUMP JUMPDEST PUSH2 0x1EA PUSH2 0x292 CALLDATASIZE PUSH1 0x4 PUSH2 0x10A8 JUMP JUMPDEST PUSH1 0x1 PUSH1 0x1 PUSH1 0xA0 SHL SUB AND PUSH1 0x0 SWAP1 DUP2 MSTORE PUSH1 0x4 PUSH1 0x20 MSTORE PUSH1 0x40 SWAP1 KECCAK256 SLOAD PUSH1 0xFF AND SWAP1 JUMP JUMPDEST PUSH2 0x2B8 PUSH2 0xDDD JUMP JUMPDEST PUSH1 0x40 MLOAD PUSH2 0x160 SWAP2 SWAP1 PUSH2 0x10E3 JUMP JUMPDEST PUSH2 0x17C PUSH2 0x2D3 CALLDATASIZE PUSH1 0x4 PUSH2 0x10A8 JUMP JUMPDEST PUSH2 0xE3F JUMP JUMPDEST PUSH2 0x2E0 PUSH2 0xEB8 JUMP JUMPDEST PUSH1 0x1 PUSH1 0x1 PUSH1 0xA0 SHL SUB DUP3 AND PUSH2 0x349 JUMPI PUSH1 0x40 MLOAD PUSH3 0x461BCD PUSH1 0xE5 SHL DUP2 MSTORE PUSH1 0x20 PUSH1 0x4 DUP3 ADD MSTORE PUSH1 0x25 PUSH1 0x24 DUP3 ADD MSTORE PUSH32 0x4C6561646572626F617264526577617264733A20696E76616C69642072656369 PUSH1 0x44 DUP3 ADD MSTORE PUSH5 0x1C1A595B9D PUSH1 0xDA SHL PUSH1 0x64 DUP3 ADD MSTORE PUSH1 0x84 ADD JUMPDEST PUSH1 0x40 MLOAD DUP1 SWAP2 SUB SWAP1 REVERT JUMPDEST PUSH1 0x0 DUP2 GT PUSH2 0x3B3 JUMPI PUSH1 0x40 MLOAD PUSH3 0x461BCD PUSH1 0xE5 SHL DUP2 MSTORE PUSH1 0x20 PUSH1 0x4 DUP3 ADD MSTORE PUSH1 0x31 PUSH1 0x24 DUP3 ADD MSTORE PUSH32 0x4C6561646572626F617264526577617264733A20616D6F756E74206D75737420 PUSH1 0x44 DUP3 ADD MSTORE PUSH17 0x62652067726561746572207468616E203 PUSH1 0x7C SHL PUSH1 0x64 DUP3 ADD MSTORE PUSH1 0x84 ADD PUSH2 0x340 JUMP JUMPDEST PUSH1 0x40 MLOAD PUSH4 0x70A08231 PUSH1 0xE0 SHL DUP2 MSTORE ADDRESS PUSH1 0x4 DUP3 ADD MSTORE PUSH1 0x0 SWAP1 PUSH32 0x0 PUSH1 0x1 PUSH1 0x1 PUSH1 0xA0 SHL SUB AND SWAP1 PUSH4 0x70A08231 SWAP1 PUSH1 0x24 ADD PUSH1 0x20 PUSH1 0x40 MLOAD DUP1 DUP4 SUB DUP2 DUP7 GAS STATICCALL ISZERO DUP1 ISZERO PUSH2 0x41A JUMPI RETURNDATASIZE PUSH1 0x0 DUP1 RETURNDATACOPY RETURNDATASIZE PUSH1 0x0 REVERT JUMPDEST POP POP POP POP PUSH1 0x40 MLOAD RETURNDATASIZE PUSH1 0x1F NOT PUSH1 0x1F DUP3 ADD AND DUP3 ADD DUP1 PUSH1 0x40 MSTORE POP DUP2 ADD SWAP1 PUSH2 0x43E SWAP2 SWAP1 PUSH2 0x1130 JUMP JUMPDEST SWAP1 POP DUP2 DUP2 LT ISZERO PUSH2 0x4A1 JUMPI PUSH1 0x40 MLOAD PUSH3 0x461BCD PUSH1 0xE5 SHL DUP2 MSTORE PUSH1 0x20 PUSH1 0x4 DUP3 ADD MSTORE PUSH1 0x28 PUSH1 0x24 DUP3 ADD MSTORE PUSH32 0x4C6561646572626F617264526577617264733A20696E73756666696369656E74 PUSH1 0x44 DUP3 ADD MSTORE PUSH8 0x2062616C616E6365 PUSH1 0xC0 SHL PUSH1 0x64 DUP3 ADD MSTORE PUSH1 0x84 ADD PUSH2 0x340 JUMP JUMPDEST PUSH1 0x40 MLOAD PUSH4 0xA9059CBB PUSH1 0xE0 SHL DUP2 MSTORE PUSH1 0x1 PUSH1 0x1 PUSH1 0xA0 SHL SUB DUP5 DUP2 AND PUSH1 0x4 DUP4 ADD MSTORE PUSH1 0x24 DUP3 ADD DUP5 SWAP1 MSTORE PUSH32 0x0 AND SWAP1 PUSH4 0xA9059CBB SWAP1 PUSH1 0x44 ADD PUSH1 0x20 PUSH1 0x40 MLOAD DUP1 DUP4 SUB DUP2 PUSH1 0x0 DUP8 GAS CALL ISZERO DUP1 ISZERO PUSH2 0x510 JUMPI RETURNDATASIZE PUSH1 0x0 DUP1 RETURNDATACOPY RETURNDATASIZE PUSH1 0x0 REVERT JUMPDEST POP POP POP POP PUSH1 0x40 MLOAD RETURNDATASIZE PUSH1 0x1F NOT PUSH1 0x1F DUP3 ADD AND DUP3 ADD DUP1 PUSH1 0x40 MSTORE POP DUP2 ADD SWAP1 PUSH2 0x534 SWAP2 SWAP1 PUSH2 0x1149 JUMP JUMPDEST PUSH2 0x550 JUMPI PUSH1 0x40 MLOAD PUSH3 0x461BCD PUSH1 0xE5 SHL DUP2 MSTORE PUSH1 0x4 ADD PUSH2 0x340 SWAP1 PUSH2 0x116B JUMP JUMPDEST PUSH1 0x40 DUP1 MLOAD PUSH1 0x1 PUSH1 0x1 PUSH1 0xA0 SHL SUB DUP6 AND DUP2 MSTORE PUSH1 0x20 DUP2 ADD DUP5 SWAP1 MSTORE PUSH32 0x6352C5382C4A4578E712449CA65E83CDB392D045DFCF1CAD9615189DB2DA244B SWAP2 ADD PUSH1 0x40 MLOAD DUP1 SWAP2 SUB SWAP1 LOG1 POP POP POP JUMP JUMPDEST PUSH1 0x2 SLOAD PUSH1 0x3 SLOAD PUSH1 0x0 SWAP2 PUSH2 0x5A9 SWAP2 PUSH2 0x11C4 JUMP JUMPDEST SWAP1 POP SWAP1 JUMP JUMPDEST PUSH1 0x0 DUP1 DUP1 JUMPDEST PUSH1 0x3 SLOAD DUP2 LT ISZERO PUSH2 0x621 JUMPI PUSH1 0x4 PUSH1 0x0 PUSH1 0x3 DUP4 DUP2 SLOAD DUP2 LT PUSH2 0x5D4 JUMPI PUSH2 0x5D4 PUSH2 0x11E1 JUMP JUMPDEST PUSH1 0x0 SWAP2 DUP3 MSTORE PUSH1 0x20 DUP1 DUP4 KECCAK256 SWAP1 SWAP2 ADD SLOAD PUSH1 0x1 PUSH1 0x1 PUSH1 0xA0 SHL SUB AND DUP4 MSTORE DUP3 ADD SWAP3 SWAP1 SWAP3 MSTORE PUSH1 0x40 ADD SWAP1 KECCAK256 SLOAD PUSH1 0xFF AND ISZERO PUSH2 0x60F JUMPI DUP2 PUSH2 0x60B DUP2 PUSH2 0x11F7 JUMP JUMPDEST SWAP3 POP POP JUMPDEST DUP1 PUSH2 0x619 DUP2 PUSH2 0x11F7 JUMP JUMPDEST SWAP2 POP POP PUSH2 0x5B3 JUMP JUMPDEST POP PUSH1 0x2 SLOAD PUSH1 0x3 SLOAD PUSH2 0x633 SWAP1 DUP4 SWAP1 PUSH2 0x1210 JUMP JUMPDEST PUSH2 0x63D SWAP2 SWAP1 PUSH2 0x11C4 JUMP JUMPDEST SWAP2 POP POP SWAP1 JUMP JUMPDEST PUSH2 0x64B PUSH2 0xEB8 JUMP JUMPDEST PUSH1 0xA DUP2 GT ISZERO PUSH2 0x6A8 JUMPI PUSH1 0x40 MLOAD PUSH3 0x461BCD PUSH1 0xE5 SHL DUP2 MSTORE PUSH1 0x20 PUSH1 0x4 DUP3 ADD MSTORE PUSH1 0x24 DUP1 DUP3 ADD MSTORE PUSH32 0x4C6561646572626F617264526577617264733A20746F6F206D616E792077696E PUSH1 0x44 DUP3 ADD MSTORE PUSH4 0x6E657273 PUSH1 0xE0 SHL PUSH1 0x64 DUP3 ADD MSTORE PUSH1 0x84 ADD PUSH2 0x340 JUMP JUMPDEST DUP1 PUSH2 0x705 JUMPI PUSH1 0x40 MLOAD PUSH3 0x461BCD PUSH1 0xE5 SHL DUP2 MSTORE PUSH1 0x20 PUSH1 0x4 DUP3 ADD MSTORE PUSH1 0x27 PUSH1 0x24 DUP3 ADD MSTORE PUSH32 0x4C6561646572626F617264526577617264733A206E6F2077696E6E6572732070 PUSH1 0x44 DUP3 ADD MSTORE PUSH7 0x1C9BDD9A591959 PUSH1 0xCA SHL PUSH1 0x64 DUP3 ADD MSTORE PUSH1 0x84 ADD PUSH2 0x340 JUMP JUMPDEST PUSH2 0x711 PUSH1 0x3 PUSH1 0x0 PUSH2 0xFBB JUMP JUMPDEST PUSH1 0x0 JUMPDEST DUP2 DUP2 LT ISZERO PUSH2 0x864 JUMPI PUSH1 0x0 DUP4 DUP4 DUP4 DUP2 DUP2 LT PUSH2 0x730 JUMPI PUSH2 0x730 PUSH2 0x11E1 JUMP JUMPDEST SWAP1 POP PUSH1 0x20 MUL ADD PUSH1 0x20 DUP2 ADD SWAP1 PUSH2 0x745 SWAP2 SWAP1 PUSH2 0x10A8 JUMP JUMPDEST PUSH1 0x1 PUSH1 0x1 PUSH1 0xA0 SHL SUB AND SUB PUSH2 0x7A7 JUMPI PUSH1 0x40 MLOAD PUSH3 0x461BCD PUSH1 0xE5 SHL DUP2 MSTORE PUSH1 0x20 PUSH1 0x4 DUP3 ADD MSTORE PUSH1 0x23 PUSH1 0x24 DUP3 ADD MSTORE PUSH32 0x4C6561646572626F617264526577617264733A20696E76616C69642061646472 PUSH1 0x44 DUP3 ADD MSTORE PUSH3 0x657373 PUSH1 0xE8 SHL PUSH1 0x64 DUP3 ADD MSTORE PUSH1 0x84 ADD PUSH2 0x340 JUMP JUMPDEST PUSH1 0x3 DUP4 DUP4 DUP4 DUP2 DUP2 LT PUSH2 0x7BB JUMPI PUSH2 0x7BB PUSH2 0x11E1 JUMP JUMPDEST SWAP1 POP PUSH1 0x20 MUL ADD PUSH1 0x20 DUP2 ADD SWAP1 PUSH2 0x7D0 SWAP2 SWAP1 PUSH2 0x10A8 JUMP JUMPDEST DUP2 SLOAD PUSH1 0x1 DUP2 ADD DUP4 SSTORE PUSH1 0x0 SWAP3 DUP4 MSTORE PUSH1 0x20 DUP4 KECCAK256 ADD DUP1 SLOAD PUSH1 0x1 PUSH1 0x1 PUSH1 0xA0 SHL SUB NOT AND PUSH1 0x1 PUSH1 0x1 PUSH1 0xA0 SHL SUB SWAP3 SWAP1 SWAP3 AND SWAP2 SWAP1 SWAP2 OR SWAP1 SSTORE PUSH1 0x4 DUP2 DUP6 DUP6 DUP6 DUP2 DUP2 LT PUSH2 0x815 JUMPI PUSH2 0x815 PUSH2 0x11E1 JUMP JUMPDEST SWAP1 POP PUSH1 0x20 MUL ADD PUSH1 0x20 DUP2 ADD SWAP1 PUSH2 0x82A SWAP2 SWAP1 PUSH2 0x10A8 JUMP JUMPDEST PUSH1 0x1 PUSH1 0x1 PUSH1 0xA0 SHL SUB AND DUP2 MSTORE PUSH1 0x20 DUP2 ADD SWAP2 SWAP1 SWAP2 MSTORE PUSH1 0x40 ADD PUSH1 0x0 KECCAK256 DUP1 SLOAD PUSH1 0xFF NOT AND SWAP2 ISZERO ISZERO SWAP2 SWAP1 SWAP2 OR SWAP1 SSTORE DUP1 PUSH2 0x85C DUP2 PUSH2 0x11F7 JUMP JUMPDEST SWAP2 POP POP PUSH2 0x714 JUMP JUMPDEST POP PUSH32 0x8451DABC49A0B82CFFB0A79A6771FE2718264AAE54A4EFF4D4463748813EC56F DUP3 DUP3 PUSH1 0x40 MLOAD PUSH2 0x896 SWAP3 SWAP2 SWAP1 PUSH2 0x1223 JUMP JUMPDEST PUSH1 0x40 MLOAD DUP1 SWAP2 SUB SWAP1 LOG1 POP POP JUMP JUMPDEST PUSH1 0x40 MLOAD PUSH4 0x70A08231 PUSH1 0xE0 SHL DUP2 MSTORE ADDRESS PUSH1 0x4 DUP3 ADD MSTORE PUSH1 0x0 SWAP1 PUSH32 0x0 PUSH1 0x1 PUSH1 0x1 PUSH1 0xA0 SHL SUB AND SWAP1 PUSH4 0x70A08231 SWAP1 PUSH1 0x24 ADD PUSH1 0x20 PUSH1 0x40 MLOAD DUP1 DUP4 SUB DUP2 DUP7 GAS STATICCALL ISZERO DUP1 ISZERO PUSH2 0x909 JUMPI RETURNDATASIZE PUSH1 0x0 DUP1 RETURNDATACOPY RETURNDATASIZE PUSH1 0x0 REVERT JUMPDEST POP POP POP POP PUSH1 0x40 MLOAD RETURNDATASIZE PUSH1 0x1F NOT PUSH1 0x1F DUP3 ADD AND DUP3 ADD DUP1 PUSH1 0x40 MSTORE POP DUP2 ADD SWAP1 PUSH2 0x5A9 SWAP2 SWAP1 PUSH2 0x1130 JUMP JUMPDEST PUSH2 0x935 PUSH2 0xEB8 JUMP JUMPDEST PUSH2 0x93F PUSH1 0x0 PUSH2 0xF12 JUMP JUMPDEST JUMP JUMPDEST PUSH1 0x0 DUP1 JUMPDEST PUSH1 0x3 SLOAD DUP2 LT ISZERO PUSH2 0x9A1 JUMPI DUP3 PUSH1 0x1 PUSH1 0x1 PUSH1 0xA0 SHL SUB AND PUSH1 0x3 DUP3 DUP2 SLOAD DUP2 LT PUSH2 0x96C JUMPI PUSH2 0x96C PUSH2 0x11E1 JUMP JUMPDEST PUSH1 0x0 SWAP2 DUP3 MSTORE PUSH1 0x20 SWAP1 SWAP2 KECCAK256 ADD SLOAD PUSH1 0x1 PUSH1 0x1 PUSH1 0xA0 SHL SUB AND SUB PUSH2 0x98F JUMPI POP PUSH1 0x1 SWAP3 SWAP2 POP POP JUMP JUMPDEST DUP1 PUSH2 0x999 DUP2 PUSH2 0x11F7 JUMP JUMPDEST SWAP2 POP POP PUSH2 0x945 JUMP JUMPDEST POP PUSH1 0x0 SWAP3 SWAP2 POP POP JUMP JUMPDEST PUSH1 0x3 DUP2 DUP2 SLOAD DUP2 LT PUSH2 0x9BA JUMPI PUSH1 0x0 DUP1 REVERT JUMPDEST PUSH1 0x0 SWAP2 DUP3 MSTORE PUSH1 0x20 SWAP1 SWAP2 KECCAK256 ADD SLOAD PUSH1 0x1 PUSH1 0x1 PUSH1 0xA0 SHL SUB AND SWAP1 POP DUP2 JUMP JUMPDEST PUSH2 0x9DC PUSH2 0xEB8 JUMP JUMPDEST PUSH1 0x0 DUP2 GT PUSH2 0xA52 JUMPI PUSH1 0x40 MLOAD PUSH3 0x461BCD PUSH1 0xE5 SHL DUP2 MSTORE PUSH1 0x20 PUSH1 0x4 DUP3 ADD MSTORE PUSH1 0x38 PUSH1 0x24 DUP3 ADD MSTORE PUSH32 0x4C6561646572626F617264526577617264733A2072657761726420616D6F756E PUSH1 0x44 DUP3 ADD MSTORE PUSH32 0x74206D7573742062652067726561746572207468616E20300000000000000000 PUSH1 0x64 DUP3 ADD MSTORE PUSH1 0x84 ADD PUSH2 0x340 JUMP JUMPDEST PUSH1 0x2 DUP2 SWAP1 SSTORE PUSH1 0x40 MLOAD DUP2 DUP2 MSTORE PUSH32 0x9639DEA65E74B72B1B86CCF3E4F9B6D23B88D2AAD2F103D0B3AFE394E67EDADE SWAP1 PUSH1 0x20 ADD PUSH1 0x40 MLOAD DUP1 SWAP2 SUB SWAP1 LOG1 POP JUMP JUMPDEST PUSH2 0xA96 CALLER PUSH2 0x941 JUMP JUMPDEST PUSH2 0xAF5 JUMPI PUSH1 0x40 MLOAD PUSH3 0x461BCD PUSH1 0xE5 SHL DUP2 MSTORE PUSH1 0x20 PUSH1 0x4 DUP3 ADD MSTORE PUSH1 0x2A PUSH1 0x24 DUP3 ADD MSTORE PUSH32 0x4C6561646572626F617264526577617264733A2063616C6C6572206973206E6F PUSH1 0x44 DUP3 ADD MSTORE PUSH10 0x3A1030903BB4B73732B9 PUSH1 0xB1 SHL PUSH1 0x64 DUP3 ADD MSTORE PUSH1 0x84 ADD PUSH2 0x340 JUMP JUMPDEST PUSH2 0xAFD PUSH2 0xF62 JUMP JUMPDEST CALLER PUSH1 0x0 SWAP1 DUP2 MSTORE PUSH1 0x4 PUSH1 0x20 MSTORE PUSH1 0x40 SWAP1 KECCAK256 SLOAD PUSH1 0xFF AND ISZERO PUSH2 0xB70 JUMPI PUSH1 0x40 MLOAD PUSH3 0x461BCD PUSH1 0xE5 SHL DUP2 MSTORE PUSH1 0x20 PUSH1 0x4 DUP3 ADD MSTORE PUSH1 0x2A PUSH1 0x24 DUP3 ADD MSTORE PUSH32 0x4C6561646572626F617264526577617264733A2072657761726420616C726561 PUSH1 0x44 DUP3 ADD MSTORE PUSH10 0x191E4818DB185A5B5959 PUSH1 0xB2 SHL PUSH1 0x64 DUP3 ADD MSTORE PUSH1 0x84 ADD PUSH2 0x340 JUMP JUMPDEST PUSH1 0x0 PUSH1 0x2 SLOAD GT PUSH2 0xBD4 JUMPI PUSH1 0x40 MLOAD PUSH3 0x461BCD PUSH1 0xE5 SHL DUP2 MSTORE PUSH1 0x20 PUSH1 0x4 DUP3 ADD MSTORE PUSH1 0x29 PUSH1 0x24 DUP3 ADD MSTORE PUSH32 0x4C6561646572626F617264526577617264733A2072657761726420616D6F756E PUSH1 0x44 DUP3 ADD MSTORE PUSH9 0x1D081B9BDD081CD95D PUSH1 0xBA SHL PUSH1 0x64 DUP3 ADD MSTORE PUSH1 0x84 ADD PUSH2 0x340 JUMP JUMPDEST PUSH1 0x40 MLOAD PUSH4 0x70A08231 PUSH1 0xE0 SHL DUP2 MSTORE ADDRESS PUSH1 0x4 DUP3 ADD MSTORE PUSH1 0x0 SWAP1 PUSH32 0x0 PUSH1 0x1 PUSH1 0x1 PUSH1 0xA0 SHL SUB AND SWAP1 PUSH4 0x70A08231 SWAP1 PUSH1 0x24 ADD PUSH1 0x20 PUSH1 0x40 MLOAD DUP1 DUP4 SUB DUP2 DUP7 GAS STATICCALL ISZERO DUP1 ISZERO PUSH2 0xC3B JUMPI RETURNDATASIZE PUSH1 0x0 DUP1 RETURNDATACOPY RETURNDATASIZE PUSH1 0x0 REVERT JUMPDEST POP POP POP POP PUSH1 0x40 MLOAD RETURNDATASIZE PUSH1 0x1F NOT PUSH1 0x1F DUP3 ADD AND DUP3 ADD DUP1 PUSH1 0x40 MSTORE POP DUP2 ADD SWAP1 PUSH2 0xC5F SWAP2 SWAP1 PUSH2 0x1130 JUMP JUMPDEST SWAP1 POP PUSH1 0x2 SLOAD DUP2 LT ISZERO PUSH2 0xCCA JUMPI PUSH1 0x40 MLOAD PUSH3 0x461BCD PUSH1 0xE5 SHL DUP2 MSTORE PUSH1 0x20 PUSH1 0x4 DUP3 ADD MSTORE PUSH1 0x2E PUSH1 0x24 DUP3 ADD MSTORE PUSH32 0x4C6561646572626F617264526577617264733A20696E73756666696369656E74 PUSH1 0x44 DUP3 ADD MSTORE PUSH14 0x20746F6B656E2062616C616E6365 PUSH1 0x90 SHL PUSH1 0x64 DUP3 ADD MSTORE PUSH1 0x84 ADD PUSH2 0x340 JUMP JUMPDEST CALLER PUSH1 0x0 DUP2 DUP2 MSTORE PUSH1 0x4 PUSH1 0x20 DUP2 SWAP1 MSTORE PUSH1 0x40 SWAP2 DUP3 SWAP1 KECCAK256 DUP1 SLOAD PUSH1 0xFF NOT AND PUSH1 0x1 OR SWAP1 SSTORE PUSH1 0x2 SLOAD SWAP2 MLOAD PUSH4 0xA9059CBB PUSH1 0xE0 SHL DUP2 MSTORE SWAP1 DUP2 ADD SWAP3 SWAP1 SWAP3 MSTORE PUSH1 0x24 DUP3 ADD MSTORE PUSH32 0x0 PUSH1 0x1 PUSH1 0x1 PUSH1 0xA0 SHL SUB AND SWAP1 PUSH4 0xA9059CBB SWAP1 PUSH1 0x44 ADD PUSH1 0x20 PUSH1 0x40 MLOAD DUP1 DUP4 SUB DUP2 PUSH1 0x0 DUP8 GAS CALL ISZERO DUP1 ISZERO PUSH2 0xD56 JUMPI RETURNDATASIZE PUSH1 0x0 DUP1 RETURNDATACOPY RETURNDATASIZE PUSH1 0x0 REVERT JUMPDEST POP POP POP POP PUSH1 0x40 MLOAD RETURNDATASIZE PUSH1 0x1F NOT PUSH1 0x1F DUP3 ADD AND DUP3 ADD DUP1 PUSH1 0x40 MSTORE POP DUP2 ADD SWAP1 PUSH2 0xD7A SWAP2 SWAP1 PUSH2 0x1149 JUMP JUMPDEST PUSH2 0xD96 JUMPI PUSH1 0x40 MLOAD PUSH3 0x461BCD PUSH1 0xE5 SHL DUP2 MSTORE PUSH1 0x4 ADD PUSH2 0x340 SWAP1 PUSH2 0x116B JUMP JUMPDEST PUSH1 0x2 SLOAD PUSH1 0x40 DUP1 MLOAD CALLER DUP2 MSTORE PUSH1 0x20 DUP2 ADD SWAP3 SWAP1 SWAP3 MSTORE PUSH32 0x106F923F993C2149D49B4255FF723ACAFA1F2D94393F561D3EDA32AE348F7241 SWAP2 ADD PUSH1 0x40 MLOAD DUP1 SWAP2 SUB SWAP1 LOG1 POP PUSH2 0x93F PUSH1 0x1 DUP1 SSTORE JUMP JUMPDEST PUSH1 0x60 PUSH1 0x3 DUP1 SLOAD DUP1 PUSH1 0x20 MUL PUSH1 0x20 ADD PUSH1 0x40 MLOAD SWAP1 DUP2 ADD PUSH1 0x40 MSTORE DUP1 SWAP3 SWAP2 SWAP1 DUP2 DUP2 MSTORE PUSH1 0x20 ADD DUP3 DUP1 SLOAD DUP1 ISZERO PUSH2 0xE35 JUMPI PUSH1 0x20 MUL DUP3 ADD SWAP2 SWAP1 PUSH1 0x0 MSTORE PUSH1 0x20 PUSH1 0x0 KECCAK256 SWAP1 JUMPDEST DUP2 SLOAD PUSH1 0x1 PUSH1 0x1 PUSH1 0xA0 SHL SUB AND DUP2 MSTORE PUSH1 0x1 SWAP1 SWAP2 ADD SWAP1 PUSH1 0x20 ADD DUP1 DUP4 GT PUSH2 0xE17 JUMPI JUMPDEST POP POP POP POP POP SWAP1 POP SWAP1 JUMP JUMPDEST PUSH2 0xE47 PUSH2 0xEB8 JUMP JUMPDEST PUSH1 0x1 PUSH1 0x1 PUSH1 0xA0 SHL SUB DUP2 AND PUSH2 0xEAC JUMPI PUSH1 0x40 MLOAD PUSH3 0x461BCD PUSH1 0xE5 SHL DUP2 MSTORE PUSH1 0x20 PUSH1 0x4 DUP3 ADD MSTORE PUSH1 0x26 PUSH1 0x24 DUP3 ADD MSTORE PUSH32 0x4F776E61626C653A206E6577206F776E657220697320746865207A65726F2061 PUSH1 0x44 DUP3 ADD MSTORE PUSH6 0x646472657373 PUSH1 0xD0 SHL PUSH1 0x64 DUP3 ADD MSTORE PUSH1 0x84 ADD PUSH2 0x340 JUMP JUMPDEST PUSH2 0xEB5 DUP2 PUSH2 0xF12 JUMP JUMPDEST POP JUMP JUMPDEST PUSH1 0x0 SLOAD PUSH1 0x1 PUSH1 0x1 PUSH1 0xA0 SHL SUB AND CALLER EQ PUSH2 0x93F JUMPI PUSH1 0x40 MLOAD PUSH3 0x461BCD PUSH1 0xE5 SHL DUP2 MSTORE PUSH1 0x20 PUSH1 0x4 DUP3 ADD DUP2 SWAP1 MSTORE PUSH1 0x24 DUP3 ADD MSTORE PUSH32 0x4F776E61626C653A2063616C6C6572206973206E6F7420746865206F776E6572 PUSH1 0x44 DUP3 ADD MSTORE PUSH1 0x64 ADD PUSH2 0x340 JUMP JUMPDEST PUSH1 0x0 DUP1 SLOAD PUSH1 0x1 PUSH1 0x1 PUSH1 0xA0 SHL SUB DUP4 DUP2 AND PUSH1 0x1 PUSH1 0x1 PUSH1 0xA0 SHL SUB NOT DUP4 AND DUP2 OR DUP5 SSTORE PUSH1 0x40 MLOAD SWAP2 SWAP1 SWAP3 AND SWAP3 DUP4 SWAP2 PUSH32 0x8BE0079C531659141344CD1FD0A4F28419497F9722A3DAAFE3B4186F6B6457E0 SWAP2 SWAP1 LOG3 POP POP JUMP JUMPDEST PUSH1 0x2 PUSH1 0x1 SLOAD SUB PUSH2 0xFB4 JUMPI PUSH1 0x40 MLOAD PUSH3 0x461BCD PUSH1 0xE5 SHL DUP2 MSTORE PUSH1 0x20 PUSH1 0x4 DUP3 ADD MSTORE PUSH1 0x1F PUSH1 0x24 DUP3 ADD MSTORE PUSH32 0x5265656E7472616E637947756172643A207265656E7472616E742063616C6C00 PUSH1 0x44 DUP3 ADD MSTORE PUSH1 0x64 ADD PUSH2 0x340 JUMP JUMPDEST PUSH1 0x2 PUSH1 0x1 SSTORE JUMP JUMPDEST POP DUP1 SLOAD PUSH1 0x0 DUP3 SSTORE SWAP1 PUSH1 0x0 MSTORE PUSH1 0x20 PUSH1 0x0 KECCAK256 SWAP1 DUP2 ADD SWAP1 PUSH2 0xEB5 SWAP2 SWAP1 JUMPDEST DUP1 DUP3 GT ISZERO PUSH2 0xFE9 JUMPI PUSH1 0x0 DUP2 SSTORE PUSH1 0x1 ADD PUSH2 0xFD5 JUMP JUMPDEST POP SWAP1 JUMP JUMPDEST DUP1 CALLDATALOAD PUSH1 0x1 PUSH1 0x1 PUSH1 0xA0 SHL SUB DUP2 AND DUP2 EQ PUSH2 0x1004 JUMPI PUSH1 0x0 DUP1 REVERT JUMPDEST SWAP2 SWAP1 POP JUMP JUMPDEST PUSH1 0x0 DUP1 PUSH1 0x40 DUP4 DUP6 SUB SLT ISZERO PUSH2 0x101C JUMPI PUSH1 0x0 DUP1 REVERT JUMPDEST PUSH2 0x1025 DUP4 PUSH2 0xFED JUMP JUMPDEST SWAP5 PUSH1 0x20 SWAP4 SWAP1 SWAP4 ADD CALLDATALOAD SWAP4 POP POP POP JUMP JUMPDEST PUSH1 0x0 DUP1 PUSH1 0x20 DUP4 DUP6 SUB SLT ISZERO PUSH2 0x1046 JUMPI PUSH1 0x0 DUP1 REVERT JUMPDEST DUP3 CALLDATALOAD PUSH8 0xFFFFFFFFFFFFFFFF DUP1 DUP3 GT ISZERO PUSH2 0x105E JUMPI PUSH1 0x0 DUP1 REVERT JUMPDEST DUP2 DUP6 ADD SWAP2 POP DUP6 PUSH1 0x1F DUP4 ADD SLT PUSH2 0x1072 JUMPI PUSH1 0x0 DUP1 REVERT JUMPDEST DUP2 CALLDATALOAD DUP2 DUP2 GT ISZERO PUSH2 0x1081 JUMPI PUSH1 0x0 DUP1 REVERT JUMPDEST DUP7 PUSH1 0x20 DUP3 PUSH1 0x5 SHL DUP6 ADD ADD GT ISZERO PUSH2 0x1096 JUMPI PUSH1 0x0 DUP1 REVERT JUMPDEST PUSH1 0x20 SWAP3 SWAP1 SWAP3 ADD SWAP7 SWAP2 SWAP6 POP SWAP1 SWAP4 POP POP POP POP JUMP JUMPDEST PUSH1 0x0 PUSH1 0x20 DUP3 DUP5 SUB SLT ISZERO PUSH2 0x10BA JUMPI PUSH1 0x0 DUP1 REVERT JUMPDEST PUSH2 0x10C3 DUP3 PUSH2 0xFED JUMP JUMPDEST SWAP4 SWAP3 POP POP POP JUMP JUMPDEST PUSH1 0x0 PUSH1 0x20 DUP3 DUP5 SUB SLT ISZERO PUSH2 0x10DC JUMPI PUSH1 0x0 DUP1 REVERT JUMPDEST POP CALLDATALOAD SWAP2 SWAP1 POP JUMP JUMPDEST PUSH1 0x20 DUP1 DUP3 MSTORE DUP3 MLOAD DUP3 DUP3 ADD DUP2 SWAP1 MSTORE PUSH1 0x0 SWAP2 SWAP1 DUP5 DUP3 ADD SWAP1 PUSH1 0x40 DUP6 ADD SWAP1 DUP5 JUMPDEST DUP2 DUP2 LT ISZERO PUSH2 0x1124 JUMPI DUP4 MLOAD PUSH1 0x1 PUSH1 0x1 PUSH1 0xA0 SHL SUB AND DUP4 MSTORE SWAP3 DUP5 ADD SWAP3 SWAP2 DUP5 ADD SWAP2 PUSH1 0x1 ADD PUSH2 0x10FF JUMP JUMPDEST POP SWAP1 SWAP7 SWAP6 POP POP POP POP POP POP JUMP JUMPDEST PUSH1 0x0 PUSH1 0x20 DUP3 DUP5 SUB SLT ISZERO PUSH2 0x1142 JUMPI PUSH1 0x0 DUP1 REVERT JUMPDEST POP MLOAD SWAP2 SWAP1 POP JUMP JUMPDEST PUSH1 0x0 PUSH1 0x20 DUP3 DUP5 SUB SLT ISZERO PUSH2 0x115B JUMPI PUSH1 0x0 DUP1 REVERT JUMPDEST DUP2 MLOAD DUP1 ISZERO ISZERO DUP2 EQ PUSH2 0x10C3 JUMPI PUSH1 0x0 DUP1 REVERT JUMPDEST PUSH1 0x20 DUP1 DUP3 MSTORE PUSH1 0x23 SWAP1 DUP3 ADD MSTORE PUSH32 0x4C6561646572626F617264526577617264733A207472616E7366657220666169 PUSH1 0x40 DUP3 ADD MSTORE PUSH3 0x1B1959 PUSH1 0xEA SHL PUSH1 0x60 DUP3 ADD MSTORE PUSH1 0x80 ADD SWAP1 JUMP JUMPDEST PUSH4 0x4E487B71 PUSH1 0xE0 SHL PUSH1 0x0 MSTORE PUSH1 0x11 PUSH1 0x4 MSTORE PUSH1 0x24 PUSH1 0x0 REVERT JUMPDEST DUP1 DUP3 MUL DUP2 ISZERO DUP3 DUP3 DIV DUP5 EQ OR PUSH2 0x11DB JUMPI PUSH2 0x11DB PUSH2 0x11AE JUMP JUMPDEST SWAP3 SWAP2 POP POP JUMP JUMPDEST PUSH4 0x4E487B71 PUSH1 0xE0 SHL PUSH1 0x0 MSTORE PUSH1 0x32 PUSH1 0x4 MSTORE PUSH1 0x24 PUSH1 0x0 REVERT JUMPDEST PUSH1 0x0 PUSH1 0x1 DUP3 ADD PUSH2 0x1209 JUMPI PUSH2 0x1209 PUSH2 0x11AE JUMP JUMPDEST POP PUSH1 0x1 ADD SWAP1 JUMP JUMPDEST DUP2 DUP2 SUB DUP2 DUP2 GT ISZERO PUSH2 0x11DB JUMPI PUSH2 0x11DB PUSH2 0x11AE JUMP JUMPDEST PUSH1 0x20 DUP1 DUP3 MSTORE DUP2 DUP2 ADD DUP4 SWAP1 MSTORE PUSH1 0x0 SWAP1 DUP5 PUSH1 0x40 DUP5 ADD DUP4 JUMPDEST DUP7 DUP2 LT ISZERO PUSH2 0x1264 JUMPI PUSH1 0x1 PUSH1 0x1 PUSH1 0xA0 SHL SUB PUSH2 0x1251 DUP5 PUSH2 0xFED JUMP JUMPDEST AND DUP3 MSTORE SWAP2 DUP4 ADD SWAP2 SWAP1 DUP4 ADD SWAP1 PUSH1 0x1 ADD PUSH2 0x1238 JUMP JUMPDEST POP SWAP7 SWAP6 POP POP POP POP POP POP JUMP INVALID LOG2 PUSH5 0x6970667358 0x22 SLT KECCAK256 CALLDATASIZE PUSH16 0x577E816EA38B589CF51C7C7186C527E4 CALLER PUSH30 0xC77918EB654DA749CD1E7FF764736F6C6343000813003300000000000000 "},"methodIdentifiers":{"FAN_TOKEN_ADDRESS()":"03b93940","MAX_WINNERS()":"29a62a76","claimReward()":"b88a802f","fanToken()":"75daa3de","getClaimStatus(address)":"c9760f71","getContractBalance()":"6f9fb98a","getTotalRewardAmount()":"10377be3","getUnclaimedRewards()":"16230257","getWinnerCount()":"a46c3637","getWinners()":"df15c37e","hasClaimed(address)":"73b2e80e","isWinner(address)":"9d9ca28d","owner()":"8da5cb5b","renounceOwnership()":"715018a6","rewardPerWinner()":"9abed90d","setRewardAmount(uint256)":"a8a65a78","setWinners(address[])":"445e6b39","transferOwnership(address)":"f2fde38b","winners(uint256)":"a2fb1175","withdrawTokens(address,uint256)":"06b091f9"}}}}}