{
  "_format": "hh-sol-artifact-1",
  "contractName": "StakingRewards",
  "sourceName": "contracts/StakingRewards.sol",
  "abi": [
    {
      "inputs": [],
      "stateMutability": "nonpayable",
      "type": "constructor"
    },
    {
      "anonymous": false,
      "inputs": [
        {
          "indexed": false,
          "internalType": "uint256",
          "name": "level",
          "type": "uint256"
        },
        {
          "indexed": false,
          "internalType": "uint256",
          "name": "newAPY",
          "type": "uint256"
        }
      ],
      "name": "APYUpdated",
      "type": "event"
    },
    {
      "anonymous": false,
      "inputs": [
        {
          "indexed": true,
          "internalType": "address",
          "name": "user",
          "type": "address"
        },
        {
          "indexed": false,
          "internalType": "uint256",
          "name": "oldLevel",
          "type": "uint256"
        },
        {
          "indexed": false,
          "internalType": "uint256",
          "name": "newLevel",
          "type": "uint256"
        }
      ],
      "name": "LevelUp",
      "type": "event"
    },
    {
      "anonymous": false,
      "inputs": [
        {
          "indexed": true,
          "internalType": "address",
          "name": "previousOwner",
          "type": "address"
        },
        {
          "indexed": true,
          "internalType": "address",
          "name": "newOwner",
          "type": "address"
        }
      ],
      "name": "OwnershipTransferred",
      "type": "event"
    },
    {
      "anonymous": false,
      "inputs": [
        {
          "indexed": true,
          "internalType": "address",
          "name": "user",
          "type": "address"
        },
        {
          "indexed": false,
          "internalType": "uint256",
          "name": "questsCompleted",
          "type": "uint256"
        },
        {
          "indexed": false,
          "internalType": "uint256",
          "name": "newLevel",
          "type": "uint256"
        }
      ],
      "name": "QuestCompleted",
      "type": "event"
    },
    {
      "anonymous": false,
      "inputs": [
        {
          "indexed": true,
          "internalType": "address",
          "name": "user",
          "type": "address"
        },
        {
          "indexed": false,
          "internalType": "uint256",
          "name": "amount",
          "type": "uint256"
        }
      ],
      "name": "RewardsClaimed",
      "type": "event"
    },
    {
      "anonymous": false,
      "inputs": [
        {
          "indexed": true,
          "internalType": "address",
          "name": "user",
          "type": "address"
        },
        {
          "indexed": false,
          "internalType": "uint256",
          "name": "amount",
          "type": "uint256"
        },
        {
          "indexed": false,
          "internalType": "uint256",
          "name": "level",
          "type": "uint256"
        }
      ],
      "name": "Staked",
      "type": "event"
    },
    {
      "anonymous": false,
      "inputs": [
        {
          "indexed": true,
          "internalType": "address",
          "name": "user",
          "type": "address"
        },
        {
          "indexed": false,
          "internalType": "uint256",
          "name": "amount",
          "type": "uint256"
        }
      ],
      "name": "Unstaked",
      "type": "event"
    },
    {
      "inputs": [],
      "name": "FAN_TOKEN_ADDRESS",
      "outputs": [
        {
          "internalType": "address",
          "name": "",
          "type": "address"
        }
      ],
      "stateMutability": "view",
      "type": "function"
    },
    {
      "inputs": [],
      "name": "accRewardPerShare",
      "outputs": [
        {
          "internalType": "uint256",
          "name": "",
          "type": "uint256"
        }
      ],
      "stateMutability": "view",
      "type": "function"
    },
    {
      "inputs": [
        {
          "internalType": "uint256",
          "name": "amount",
          "type": "uint256"
        }
      ],
      "name": "addRewardTokens",
      "outputs": [],
      "stateMutability": "nonpayable",
      "type": "function"
    },
    {
      "inputs": [],
      "name": "claimRewards",
      "outputs": [],
      "stateMutability": "nonpayable",
      "type": "function"
    },
    {
      "inputs": [
        {
          "internalType": "address",
          "name": "user",
          "type": "address"
        },
        {
          "internalType": "uint256",
          "name": "questCount",
          "type": "uint256"
        }
      ],
      "name": "completeMultipleQuests",
      "outputs": [],
      "stateMutability": "nonpayable",
      "type": "function"
    },
    {
      "inputs": [
        {
          "internalType": "address",
          "name": "user",
          "type": "address"
        }
      ],
      "name": "completeQuest",
      "outputs": [],
      "stateMutability": "nonpayable",
      "type": "function"
    },
    {
      "inputs": [],
      "name": "fanToken",
      "outputs": [
        {
          "internalType": "contract IERC20",
          "name": "",
          "type": "address"
        }
      ],
      "stateMutability": "view",
      "type": "function"
    },
    {
      "inputs": [
        {
          "internalType": "uint256",
          "name": "level",
          "type": "uint256"
        }
      ],
      "name": "getLevelInfo",
      "outputs": [
        {
          "internalType": "uint256",
          "name": "minQuests",
          "type": "uint256"
        },
        {
          "internalType": "uint256",
          "name": "apy",
          "type": "uint256"
        },
        {
          "internalType": "string",
          "name": "name",
          "type": "string"
        }
      ],
      "stateMutability": "view",
      "type": "function"
    },
    {
      "inputs": [],
      "name": "getTotalInfo",
      "outputs": [
        {
          "internalType": "uint256",
          "name": "_totalStaked",
          "type": "uint256"
        },
        {
          "internalType": "uint256",
          "name": "_totalRewardsDistributed",
          "type": "uint256"
        },
        {
          "internalType": "uint256",
          "name": "_rewardPerSecond",
          "type": "uint256"
        },
        {
          "internalType": "uint256",
          "name": "_contractBalance",
          "type": "uint256"
        }
      ],
      "stateMutability": "view",
      "type": "function"
    },
    {
      "inputs": [
        {
          "internalType": "address",
          "name": "user",
          "type": "address"
        }
      ],
      "name": "getUserAPY",
      "outputs": [
        {
          "internalType": "uint256",
          "name": "",
          "type": "uint256"
        }
      ],
      "stateMutability": "view",
      "type": "function"
    },
    {
      "inputs": [
        {
          "internalType": "address",
          "name": "user",
          "type": "address"
        }
      ],
      "name": "getUserStake",
      "outputs": [
        {
          "internalType": "uint256",
          "name": "stakedAmount",
          "type": "uint256"
        },
        {
          "internalType": "uint256",
          "name": "pendingRewards",
          "type": "uint256"
        },
        {
          "internalType": "uint256",
          "name": "userLevel",
          "type": "uint256"
        },
        {
          "internalType": "uint256",
          "name": "questsCompleted",
          "type": "uint256"
        },
        {
          "internalType": "bool",
          "name": "isStaking",
          "type": "bool"
        },
        {
          "internalType": "string",
          "name": "levelName",
          "type": "string"
        }
      ],
      "stateMutability": "view",
      "type": "function"
    },
    {
      "inputs": [],
      "name": "lastUpdateTime",
      "outputs": [
        {
          "internalType": "uint256",
          "name": "",
          "type": "uint256"
        }
      ],
      "stateMutability": "view",
      "type": "function"
    },
    {
      "inputs": [
        {
          "internalType": "uint256",
          "name": "",
          "type": "uint256"
        }
      ],
      "name": "levels",
      "outputs": [
        {
          "internalType": "uint256",
          "name": "minQuests",
          "type": "uint256"
        },
        {
          "internalType": "uint256",
          "name": "apy",
          "type": "uint256"
        },
        {
          "internalType": "string",
          "name": "name",
          "type": "string"
        }
      ],
      "stateMutability": "view",
      "type": "function"
    },
    {
      "inputs": [],
      "name": "owner",
      "outputs": [
        {
          "internalType": "address",
          "name": "",
          "type": "address"
        }
      ],
      "stateMutability": "view",
      "type": "function"
    },
    {
      "inputs": [],
      "name": "renounceOwnership",
      "outputs": [],
      "stateMutability": "nonpayable",
      "type": "function"
    },
    {
      "inputs": [],
      "name": "rewardPerSecond",
      "outputs": [
        {
          "internalType": "uint256",
          "name": "",
          "type": "uint256"
        }
      ],
      "stateMutability": "view",
      "type": "function"
    },
    {
      "inputs": [
        {
          "internalType": "uint256",
          "name": "_rewardPerSecond",
          "type": "uint256"
        }
      ],
      "name": "setRewardPerSecond",
      "outputs": [],
      "stateMutability": "nonpayable",
      "type": "function"
    },
    {
      "inputs": [
        {
          "internalType": "uint256",
          "name": "amount",
          "type": "uint256"
        }
      ],
      "name": "stake",
      "outputs": [],
      "stateMutability": "nonpayable",
      "type": "function"
    },
    {
      "inputs": [],
      "name": "totalLevels",
      "outputs": [
        {
          "internalType": "uint256",
          "name": "",
          "type": "uint256"
        }
      ],
      "stateMutability": "view",
      "type": "function"
    },
    {
      "inputs": [],
      "name": "totalRewardsDistributed",
      "outputs": [
        {
          "internalType": "uint256",
          "name": "",
          "type": "uint256"
        }
      ],
      "stateMutability": "view",
      "type": "function"
    },
    {
      "inputs": [],
      "name": "totalStaked",
      "outputs": [
        {
          "internalType": "uint256",
          "name": "",
          "type": "uint256"
        }
      ],
      "stateMutability": "view",
      "type": "function"
    },
    {
      "inputs": [
        {
          "internalType": "address",
          "name": "newOwner",
          "type": "address"
        }
      ],
      "name": "transferOwnership",
      "outputs": [],
      "stateMutability": "nonpayable",
      "type": "function"
    },
    {
      "inputs": [
        {
          "internalType": "uint256",
          "name": "amount",
          "type": "uint256"
        }
      ],
      "name": "unstake",
      "outputs": [],
      "stateMutability": "nonpayable",
      "type": "function"
    },
    {
      "inputs": [
        {
          "internalType": "uint256",
          "name": "level",
          "type": "uint256"
        },
        {
          "internalType": "uint256",
          "name": "newAPY",
          "type": "uint256"
        }
      ],
      "name": "updateLevelAPY",
      "outputs": [],
      "stateMutability": "nonpayable",
      "type": "function"
    },
    {
      "inputs": [
        {
          "internalType": "address",
          "name": "",
          "type": "address"
        }
      ],
      "name": "userStakes",
      "outputs": [
        {
          "internalType": "uint256",
          "name": "stakedAmount",
          "type": "uint256"
        },
        {
          "internalType": "uint256",
          "name": "rewardDebt",
          "type": "uint256"
        },
        {
          "internalType": "uint256",
          "name": "lastUpdateTime",
          "type": "uint256"
        },
        {
          "internalType": "uint256",
          "name": "userLevel",
          "type": "uint256"
        },
        {
          "internalType": "uint256",
          "name": "questsCompleted",
          "type": "uint256"
        },
        {
          "internalType": "bool",
          "name": "isStaking",
          "type": "bool"
        }
      ],
      "stateMutability": "view",
      "type": "function"
    },
    {
      "inputs": [
        {
          "internalType": "address",
          "name": "to",
          "type": "address"
        },
        {
          "internalType": "uint256",
          "name": "amount",
          "type": "uint256"
        }
      ],
      "name": "withdrawTokens",
      "outputs": [],
      "stateMutability": "nonpayable",
      "type": "function"
    }
  ],
  "bytecode": "0x60a06040523480156200001157600080fd5b506200001d336200004d565b60018055731f0a316ba43224d87d7024c312ff52e1c8a2ced9608052620000436200009d565b4260055562000a5f565b600080546001600160a01b038381166001600160a01b0319831681178455604051919092169283917f8be0079c531659141344cd1fd0a4f28419497f9722a3daafe3b4186f6b6457e09190a35050565b6040805160608101825260008082526101f46020808401918252845180860186526008808252672132b3b4b73732b960c11b828401529585019081529280529390935281517f5eff886ea0ce6ca488a3d6e336d6c0f75f46d19b42c06ce5ee98e42c96d256c790815592517f5eff886ea0ce6ca488a3d6e336d6c0f75f46d19b42c06ce5ee98e42c96d256c855519091907f5eff886ea0ce6ca488a3d6e336d6c0f75f46d19b42c06ce5ee98e42c96d256c9906200015c908262000993565b5050604080516060810182526005815261032060208083019182528351808501855260068152654e6f7669636560d01b8183015293830193845260016000526008905281517fad67d757c34507f157cacfa2e3153e9f260a2244f30428821be7be64587ac55f90815590517fad67d757c34507f157cacfa2e3153e9f260a2244f30428821be7be64587ac5605591519092507fad67d757c34507f157cacfa2e3153e9f260a2244f30428821be7be64587ac561906200021c908262000993565b505060408051606081018252600f81526104b0602080830191825283518085018552600781526620b6b0ba32bab960c91b8183015293830193845260026000526008905281517f6add646517a5b0f6793cd5891b7937d28a5b2981a5d88ebc7cd776088fea904190815590517f6add646517a5b0f6793cd5891b7937d28a5b2981a5d88ebc7cd776088fea90425591519092507f6add646517a5b0f6793cd5891b7937d28a5b2981a5d88ebc7cd776088fea904390620002dd908262000993565b505060408051606081018252601e8152610640602080830191825283518085018552600a815269115b9d1a1d5cda585cdd60b21b8183015293830193845260036000526008905281517f625b35f5e76f098dd7c3a05b10e2e5e78a4a01228d60c3b143426cdf36d2645590815590517f625b35f5e76f098dd7c3a05b10e2e5e78a4a01228d60c3b143426cdf36d264565591519092507f625b35f5e76f098dd7c3a05b10e2e5e78a4a01228d60c3b143426cdf36d2645790620003a1908262000993565b505060408051606081018252603281526107d06020808301918252835180850185526006815265115e1c195c9d60d21b8183015293830193845260046000526008905281517f9321edea6e3be4df59a344b401fab4f888b556fda1f954244cff9204bad624b890815590517f9321edea6e3be4df59a344b401fab4f888b556fda1f954244cff9204bad624b95591519092507f9321edea6e3be4df59a344b401fab4f888b556fda1f954244cff9204bad624ba9062000461908262000993565b505060408051606081018252604b81526109c4602080830191825283518085018552600681526526b0b9ba32b960d11b8183015293830193845260056000526008905281517f91238f30f286c9a1c6e901c4eda3b214c381c846e3dbe48df95c21488e8e1fdb90815590517f91238f30f286c9a1c6e901c4eda3b214c381c846e3dbe48df95c21488e8e1fdc5591519092507f91238f30f286c9a1c6e901c4eda3b214c381c846e3dbe48df95c21488e8e1fdd9062000521908262000993565b50506040805160608101825260648152610bb8602080830191825283518085018552600680825265131959d95b9960d21b828401529484019081526000949094526008905281517f13acf3fc7bed94759963f076d5d3443d88732026bffc8253bdf4a6e65f21ecc590815590517f13acf3fc7bed94759963f076d5d3443d88732026bffc8253bdf4a6e65f21ecc65591519092507f13acf3fc7bed94759963f076d5d3443d88732026bffc8253bdf4a6e65f21ecc790620005e3908262000993565b50506040805160608101825260968152610dac60208083019182528351808501855260088082526721b430b6b834b7b760c11b82840152948401908152600760005293905281517f24cd397636bedc6cf9b490d0edd57c769c19b367fb7d5c2344ae1ddc7d21c14490815590517f24cd397636bedc6cf9b490d0edd57c769c19b367fb7d5c2344ae1ddc7d21c1455591519092507f24cd397636bedc6cf9b490d0edd57c769c19b367fb7d5c2344ae1ddc7d21c14690620006a5908262000993565b50506040805160608101825260c88152610fa060208083019182528351808501855260048152634865726f60e01b8183015293830193845260086000819052905281517fe4c2e8be66af8dd2d277000f4f830a10546f8b14e45cd850b875c98ba0f0d2cd90815590517fe4c2e8be66af8dd2d277000f4f830a10546f8b14e45cd850b875c98ba0f0d2ce5591519092507fe4c2e8be66af8dd2d277000f4f830a10546f8b14e45cd850b875c98ba0f0d2cf9062000763908262000993565b50506040805160608101825261012c8152611194602080830191825283518085018552600381526211dbd960ea1b8183015293830193845260096000526008905281517f82c9e868e45873bb5a4f47c09e14a12f6a6314e13aabd611e4374762bb4e8b3690815590517f82c9e868e45873bb5a4f47c09e14a12f6a6314e13aabd611e4374762bb4e8b375591519092507f82c9e868e45873bb5a4f47c09e14a12f6a6314e13aabd611e4374762bb4e8b389062000821908262000993565b5050604080516060810182526101f48152611388602080830191825283518085018552600880825267125b5b5bdc9d185b60c21b82840152948401908152600a60005293905281517f586689db7536874b78a6eac0f58556a56a106985743f7c16a699b27bb02f88bd90815590517f586689db7536874b78a6eac0f58556a56a106985743f7c16a699b27bb02f88be5591519092507f586689db7536874b78a6eac0f58556a56a106985743f7c16a699b27bb02f88bf90620008e4908262000993565b5050600b60095550565b634e487b7160e01b600052604160045260246000fd5b600181811c908216806200091957607f821691505b6020821081036200093a57634e487b7160e01b600052602260045260246000fd5b50919050565b601f8211156200098e57600081815260208120601f850160051c81016020861015620009695750805b601f850160051c820191505b818110156200098a5782815560010162000975565b5050505b505050565b81516001600160401b03811115620009af57620009af620008ee565b620009c781620009c0845462000904565b8462000940565b602080601f831160018114620009ff5760008415620009e65750858301515b600019600386901b1c1916600185901b1785556200098a565b600085815260208120601f198616915b8281101562000a305788860151825594840194600190910190840162000a0f565b508582101562000a4f5787850151600019600388901b60f8161c191681555b5050505050600190811b01905550565b60805161188762000aac600039600081816102e201528181610578015281816106380152818161078d0152818161096901528181610a6601528181610d930152610efa01526118876000f3fe608060405234801561001057600080fd5b506004361061018e5760003560e01c806377b37fe7116100de578063a694fc3a11610097578063c8f33c9111610071578063c8f33c9114610403578063e8c094191461040c578063ee1725461461041f578063f2fde38b1461042857600080fd5b8063a694fc3a146103b8578063b2596a67146103cb578063bbadc93a146103de57600080fd5b806377b37fe714610304578063817b1cd2146103175780638da5cb5b146103205780638da7ad23146103315780638f10369a146103a6578063939d6237146103af57600080fd5b80633660106e1161014b578063609e276e11610125578063609e276e146102af57806366da5815146102c2578063715018a6146102d557806375daa3de146102dd57600080fd5b80633660106e14610258578063372500ab1461029457806358eb97001461029c57600080fd5b8063030101db1461019357806303b93940146101be57806306b091f9146101f15780631f57803114610206578063285109d11461021d5780632e17de7814610245575b600080fd5b6101a66101a13660046115c9565b61043b565b6040516101b593929190611628565b60405180910390f35b6101d9731f0a316ba43224d87d7024c312ff52e1c8a2ced981565b6040516001600160a01b0390911681526020016101b5565b6102046101ff36600461166c565b61054a565b005b61020f60095481565b6040519081526020016101b5565b610225610605565b6040805194855260208501939093529183015260608201526080016101b5565b6102046102533660046115c9565b6106b1565b61020f610266366004611696565b6001600160a01b03166000908152600760209081526040808320600301548352600890915290206001015490565b610204610860565b6102046102aa3660046115c9565b610a3c565b6102046102bd36600461166c565b610af7565b6102046102d03660046115c9565b610bef565b610204610c04565b6101d97f000000000000000000000000000000000000000000000000000000000000000081565b610204610312366004611696565b610c16565b61020f60025481565b6000546001600160a01b03166101d9565b61037761033f366004611696565b600760205260009081526040902080546001820154600283015460038401546004850154600590950154939492939192909160ff1686565b6040805196875260208701959095529385019290925260608401526080830152151560a082015260c0016101b5565b61020f60045481565b61020f60065481565b6102046103c63660046115c9565b610d0e565b6101a66103d93660046115c9565b610fd1565b6103f16103ec366004611696565b61107c565b6040516101b5969594939291906116b1565b61020f60055481565b61020461041a3660046116f0565b611226565b61020f60035481565b610204610436366004611696565b6112d1565b600080606060095484106104965760405162461bcd60e51b815260206004820152601d60248201527f5374616b696e67526577617264733a20696e76616c6964206c6576656c00000060448201526064015b60405180910390fd5b60008481526008602052604090208054600182015460028301805481906104bc90611712565b80601f01602080910402602001604051908101604052809291908181526020018280546104e890611712565b80156105355780601f1061050a57610100808354040283529160200191610535565b820191906000526020600020905b81548152906001019060200180831161051857829003601f168201915b50505050509050935093509350509193909250565b610552611347565b60405163a9059cbb60e01b81526001600160a01b038381166004830152602482018390527f0000000000000000000000000000000000000000000000000000000000000000169063a9059cbb906044016020604051808303816000875af11580156105c1573d6000803e3d6000fd5b505050506040513d601f19601f820116820180604052508101906105e5919061174c565b6106015760405162461bcd60e51b815260040161048d90611775565b5050565b600254600354600480546040516370a0823160e01b81523092810192909252600093849384938493906001600160a01b037f000000000000000000000000000000000000000000000000000000000000000016906370a0823190602401602060405180830381865afa15801561067f573d6000803e3d6000fd5b505050506040513d601f19601f820116820180604052508101906106a391906117ac565b935093509350935090919293565b6106b96113a1565b336000908152600760205260409020805482111561072c5760405162461bcd60e51b815260206004820152602a60248201527f5374616b696e67526577617264733a20696e73756666696369656e74207374616044820152691ad95908185b5bdd5b9d60b21b606482015260840161048d565b6107346113fa565b61073d33611478565b805461074990836114fe565b815560025461075890836114fe565b60025580546000036107715760058101805460ff191690555b60405163a9059cbb60e01b8152336004820152602481018390527f00000000000000000000000000000000000000000000000000000000000000006001600160a01b03169063a9059cbb906044016020604051808303816000875af11580156107de573d6000803e3d6000fd5b505050506040513d601f19601f82011682018060405250810190610802919061174c565b61081e5760405162461bcd60e51b815260040161048d90611775565b60405182815233907f0f5bb82176feb1b5e747e28471aa92156a04d9f3ab9f45f28e2d704232b93f759060200160405180910390a25061085d60018055565b50565b6108686113a1565b6108706113fa565b61087933611478565b336000908152600760205260408120600181015460065482549293926108be92916108b891670de0b6b3a7640000916108b29190611513565b9061151f565b906114fe565b90506000811161091c5760405162461bcd60e51b815260206004820152602360248201527f5374616b696e67526577617264733a206e6f207265776172647320746f20636c60448201526261696d60e81b606482015260840161048d565b600654825461093891670de0b6b3a7640000916108b291611513565b600183015560035461094a908261152b565b60035560405163a9059cbb60e01b8152336004820152602481018290527f00000000000000000000000000000000000000000000000000000000000000006001600160a01b03169063a9059cbb906044016020604051808303816000875af11580156109ba573d6000803e3d6000fd5b505050506040513d601f19601f820116820180604052508101906109de919061174c565b6109fa5760405162461bcd60e51b815260040161048d90611775565b60405181815233907ffc30cddea38e2bf4d6ea7d3f9ed3b6ad7f176419f4963bd81318067a4aee73fe9060200160405180910390a25050610a3a60018055565b565b610a44611347565b6040516323b872dd60e01b8152336004820152306024820152604481018290527f00000000000000000000000000000000000000000000000000000000000000006001600160a01b0316906323b872dd906064016020604051808303816000875af1158015610ab7573d6000803e3d6000fd5b505050506040513d601f19601f82011682018060405250810190610adb919061174c565b61085d5760405162461bcd60e51b815260040161048d90611775565b610aff611347565b6001600160a01b038216600090815260076020526040902060038101546004820154610b2b908461152b565b60048301819055610b3b90611537565b6003830181905560048301546040805191825260208201929092526001600160a01b038616917fe0b5124b12e878158288d1002ed1fb960faff0ec1c7b3168f86d9d1afd1b0d8b910160405180910390a28082600301541115610be957836001600160a01b03167feec61667dd6eeecdccfef3c906e0fd047cca672804901ac4254d8545e9a426d4828460030154604051610be0929190918252602082015260400190565b60405180910390a25b50505050565b610bf7611347565b610bff6113fa565b600455565b610c0c611347565b610a3a6000611579565b610c1e611347565b6001600160a01b038116600090815260076020526040902060038101546004820154610c4b90600161152b565b60048301819055610c5b90611537565b6003830181905560048301546040805191825260208201929092526001600160a01b038516917fe0b5124b12e878158288d1002ed1fb960faff0ec1c7b3168f86d9d1afd1b0d8b910160405180910390a28082600301541115610d0957826001600160a01b03167feec61667dd6eeecdccfef3c906e0fd047cca672804901ac4254d8545e9a426d4828460030154604051610d00929190918252602082015260400190565b60405180910390a25b505050565b610d166113a1565b60008111610d7c5760405162461bcd60e51b815260206004820152602d60248201527f5374616b696e67526577617264733a20616d6f756e74206d757374206265206760448201526c0726561746572207468616e203609c1b606482015260840161048d565b6040516370a0823160e01b815233600482015281907f00000000000000000000000000000000000000000000000000000000000000006001600160a01b0316906370a0823190602401602060405180830381865afa158015610de2573d6000803e3d6000fd5b505050506040513d601f19601f82011682018060405250810190610e0691906117ac565b1015610e605760405162461bcd60e51b8152602060048201526024808201527f5374616b696e67526577617264733a20696e73756666696369656e742062616c604482015263616e636560e01b606482015260840161048d565b610e686113fa565b610e7133611478565b3360009081526007602052604081206004810154909190610e9190611537565b825490915015610eae578154610ea7908461152b565b8255610ec8565b8282556003820181905560058201805460ff191660011790555b600254610ed5908461152b565b6002556040516323b872dd60e01b8152336004820152306024820152604481018490527f00000000000000000000000000000000000000000000000000000000000000006001600160a01b0316906323b872dd906064016020604051808303816000875af1158015610f4b573d6000803e3d6000fd5b505050506040513d601f19601f82011682018060405250810190610f6f919061174c565b610f8b5760405162461bcd60e51b815260040161048d90611775565b604080518481526020810183905233917f1449c6dd7851abc30abf37f57715f492010519147cc2652fbc38202c18a6ee90910160405180910390a2505061085d60018055565b60086020526000908152604090208054600182015460028301805492939192610ff990611712565b80601f016020809104026020016040519081016040528092919081815260200182805461102590611712565b80156110725780601f1061104757610100808354040283529160200191611072565b820191906000526020600020905b81548152906001019060200180831161105557829003601f168201915b5050505050905083565b6001600160a01b038116600090815260076020526040812060065460055483928392839283926060929091421180156110b757506000600254115b1561111e5760006110d3600554426114fe90919063ffffffff16565b905060006110ec6004548361151390919063ffffffff16565b90506111196111126002546108b2670de0b6b3a76400008561151390919063ffffffff16565b849061152b565b925050505b8154600090156111565761115383600101546108b8670de0b6b3a76400006108b286886000015461151390919063ffffffff16565b90505b8254600384015460048501546005860154600083815260086020526040902060020180548694939260ff169190819061118e90611712565b80601f01602080910402602001604051908101604052809291908181526020018280546111ba90611712565b80156112075780601f106111dc57610100808354040283529160200191611207565b820191906000526020600020905b8154815290600101906020018083116111ea57829003601f168201915b5050505050905098509850985098509850985050505091939550919395565b61122e611347565b600954821061127f5760405162461bcd60e51b815260206004820152601d60248201527f5374616b696e67526577617264733a20696e76616c6964206c6576656c000000604482015260640161048d565b60008281526008602090815260409182902060010183905581518481529081018390527f787a1fca55641ce34a438271930bbb9401df20db2b4f510d4f252227d85df43d910160405180910390a15050565b6112d9611347565b6001600160a01b03811661133e5760405162461bcd60e51b815260206004820152602660248201527f4f776e61626c653a206e6577206f776e657220697320746865207a65726f206160448201526564647265737360d01b606482015260840161048d565b61085d81611579565b6000546001600160a01b03163314610a3a5760405162461bcd60e51b815260206004820181905260248201527f4f776e61626c653a2063616c6c6572206973206e6f7420746865206f776e6572604482015260640161048d565b6002600154036113f35760405162461bcd60e51b815260206004820152601f60248201527f5265656e7472616e637947756172643a207265656e7472616e742063616c6c00604482015260640161048d565b6002600155565b600554421161140557565b60025415611472576000611424600554426114fe90919063ffffffff16565b9050600061143d6004548361151390919063ffffffff16565b905061146c6114636002546108b2670de0b6b3a76400008561151390919063ffffffff16565b6006549061152b565b60065550505b42600555565b6001600160a01b03811660009081526007602052604090208054156114f45760006114c682600101546108b8670de0b6b3a76400006108b2600654876000015461151390919063ffffffff16565b90506114ed670de0b6b3a76400006108b2600654856000015461151390919063ffffffff16565b6001830155505b4260029091015550565b600061150a82846117db565b90505b92915050565b600061150a82846117ee565b600061150a8284611805565b600061150a8284611827565b600080600160095461154991906117db565b90505b60008181526008602052604090205483106115675792915050565b806115718161183a565b91505061154c565b600080546001600160a01b038381166001600160a01b0319831681178455604051919092169283917f8be0079c531659141344cd1fd0a4f28419497f9722a3daafe3b4186f6b6457e09190a35050565b6000602082840312156115db57600080fd5b5035919050565b6000815180845260005b81811015611608576020818501810151868301820152016115ec565b506000602082860101526020601f19601f83011685010191505092915050565b83815282602082015260606040820152600061164760608301846115e2565b95945050505050565b80356001600160a01b038116811461166757600080fd5b919050565b6000806040838503121561167f57600080fd5b61168883611650565b946020939093013593505050565b6000602082840312156116a857600080fd5b61150a82611650565b868152856020820152846040820152836060820152821515608082015260c060a082015260006116e460c08301846115e2565b98975050505050505050565b6000806040838503121561170357600080fd5b50508035926020909101359150565b600181811c9082168061172657607f821691505b60208210810361174657634e487b7160e01b600052602260045260246000fd5b50919050565b60006020828403121561175e57600080fd5b8151801515811461176e57600080fd5b9392505050565b6020808252601f908201527f5374616b696e67526577617264733a207472616e73666572206661696c656400604082015260600190565b6000602082840312156117be57600080fd5b5051919050565b634e487b7160e01b600052601160045260246000fd5b8181038181111561150d5761150d6117c5565b808202811582820484141761150d5761150d6117c5565b60008261182257634e487b7160e01b600052601260045260246000fd5b500490565b8082018082111561150d5761150d6117c5565b600081611849576118496117c5565b50600019019056fea2646970667358221220349050e5fbe3c265e7472366bbefbd82194c822ec3d8d0c8651fa32df60b5ed364736f6c63430008130033",
  "linkReferences": {},
  "deployedLinkReferences": {}
}